{
	"contracts/fundMe/fundme.sol": {
		"FundMe": {
			"abi": [
				{
					"inputs": [],
					"stateMutability": "nonpayable",
					"type": "constructor"
				},
				{
					"anonymous": false,
					"inputs": [
						{
							"indexed": true,
							"internalType": "address",
							"name": "user",
							"type": "address"
						},
						{
							"indexed": false,
							"internalType": "uint256",
							"name": "amount",
							"type": "uint256"
						}
					],
					"name": "Deposited",
					"type": "event"
				},
				{
					"anonymous": false,
					"inputs": [
						{
							"indexed": true,
							"internalType": "address",
							"name": "owner",
							"type": "address"
						},
						{
							"indexed": false,
							"internalType": "uint256",
							"name": "amount",
							"type": "uint256"
						}
					],
					"name": "Withdrawn",
					"type": "event"
				},
				{
					"inputs": [],
					"name": "deposit",
					"outputs": [],
					"stateMutability": "payable",
					"type": "function"
				},
				{
					"inputs": [
						{
							"internalType": "uint256",
							"name": "",
							"type": "uint256"
						}
					],
					"name": "donors",
					"outputs": [
						{
							"internalType": "address",
							"name": "",
							"type": "address"
						}
					],
					"stateMutability": "view",
					"type": "function"
				},
				{
					"inputs": [],
					"name": "getDonors",
					"outputs": [
						{
							"internalType": "address[]",
							"name": "",
							"type": "address[]"
						}
					],
					"stateMutability": "view",
					"type": "function"
				},
				{
					"inputs": [
						{
							"internalType": "address",
							"name": "",
							"type": "address"
						}
					],
					"name": "isDonor",
					"outputs": [
						{
							"internalType": "bool",
							"name": "",
							"type": "bool"
						}
					],
					"stateMutability": "view",
					"type": "function"
				},
				{
					"inputs": [],
					"name": "owner",
					"outputs": [
						{
							"internalType": "address",
							"name": "",
							"type": "address"
						}
					],
					"stateMutability": "view",
					"type": "function"
				},
				{
					"inputs": [
						{
							"internalType": "address",
							"name": "",
							"type": "address"
						}
					],
					"name": "user",
					"outputs": [
						{
							"internalType": "uint256",
							"name": "",
							"type": "uint256"
						}
					],
					"stateMutability": "view",
					"type": "function"
				},
				{
					"inputs": [],
					"name": "withdraw",
					"outputs": [],
					"stateMutability": "nonpayable",
					"type": "function"
				}
			],
			"devdoc": {
				"kind": "dev",
				"methods": {},
				"version": 1
			},
			"evm": {
				"assembly": "    /* \"contracts/fundMe/fundme.sol\":60:1392  contract FundMe {... */\n  mstore(0x40, 0x80)\n    /* \"contracts/fundMe/fundme.sol\":361:412  constructor() {... */\n  callvalue\n  dup1\n  iszero\n  tag_1\n  jumpi\n  revert(0x00, 0x00)\ntag_1:\n  pop\n    /* \"contracts/fundMe/fundme.sol\":394:404  msg.sender */\n  caller\n    /* \"contracts/fundMe/fundme.sol\":386:391  owner */\n  0x00\n  0x00\n    /* \"contracts/fundMe/fundme.sol\":386:404  owner = msg.sender */\n  0x0100\n  exp\n  dup2\n  sload\n  dup2\n  0xffffffffffffffffffffffffffffffffffffffff\n  mul\n  not\n  and\n  swap1\n  dup4\n  0xffffffffffffffffffffffffffffffffffffffff\n  and\n  mul\n  or\n  swap1\n  sstore\n  pop\n    /* \"contracts/fundMe/fundme.sol\":60:1392  contract FundMe {... */\n  dataSize(sub_0)\n  dup1\n  dataOffset(sub_0)\n  0x00\n  codecopy\n  0x00\n  return\nstop\n\nsub_0: assembly {\n        /* \"contracts/fundMe/fundme.sol\":60:1392  contract FundMe {... */\n      mstore(0x40, 0x80)\n      jumpi(tag_1, lt(calldatasize, 0x04))\n      shr(0xe0, calldataload(0x00))\n      dup1\n      0x81e7e20e\n      gt\n      tag_9\n      jumpi\n      dup1\n      0x81e7e20e\n      eq\n      tag_5\n      jumpi\n      dup1\n      0x8da5cb5b\n      eq\n      tag_6\n      jumpi\n      dup1\n      0x96f300d4\n      eq\n      tag_7\n      jumpi\n      dup1\n      0xd0e30db0\n      eq\n      tag_8\n      jumpi\n      jump(tag_1)\n    tag_9:\n      dup1\n      0x2bc3d7aa\n      eq\n      tag_2\n      jumpi\n      dup1\n      0x3ccfd60b\n      eq\n      tag_3\n      jumpi\n      dup1\n      0x4abfa163\n      eq\n      tag_4\n      jumpi\n    tag_1:\n      revert(0x00, 0x00)\n        /* \"contracts/fundMe/fundme.sol\":160:199  mapping(address => bool) public isDonor */\n    tag_2:\n      callvalue\n      dup1\n      iszero\n      tag_10\n      jumpi\n      revert(0x00, 0x00)\n    tag_10:\n      pop\n      tag_11\n      0x04\n      dup1\n      calldatasize\n      sub\n      dup2\n      add\n      swap1\n      tag_12\n      swap2\n      swap1\n      tag_13\n      jump\t// in\n    tag_12:\n      tag_14\n      jump\t// in\n    tag_11:\n      mload(0x40)\n      tag_15\n      swap2\n      swap1\n      tag_16\n      jump\t// in\n    tag_15:\n      mload(0x40)\n      dup1\n      swap2\n      sub\n      swap1\n      return\n        /* \"contracts/fundMe/fundme.sol\":865:1289  function withdraw() public onlyOwner {... */\n    tag_3:\n      callvalue\n      dup1\n      iszero\n      tag_17\n      jumpi\n      revert(0x00, 0x00)\n    tag_17:\n      pop\n      tag_18\n      tag_19\n      jump\t// in\n    tag_18:\n      stop\n        /* \"contracts/fundMe/fundme.sol\":206:229  address[] public donors */\n    tag_4:\n      callvalue\n      dup1\n      iszero\n      tag_20\n      jumpi\n      revert(0x00, 0x00)\n    tag_20:\n      pop\n      tag_21\n      0x04\n      dup1\n      calldatasize\n      sub\n      dup2\n      add\n      swap1\n      tag_22\n      swap2\n      swap1\n      tag_23\n      jump\t// in\n    tag_22:\n      tag_24\n      jump\t// in\n    tag_21:\n      mload(0x40)\n      tag_25\n      swap2\n      swap1\n      tag_26\n      jump\t// in\n    tag_25:\n      mload(0x40)\n      dup1\n      swap2\n      sub\n      swap1\n      return\n        /* \"contracts/fundMe/fundme.sol\":114:153  mapping(address => uint256) public user */\n    tag_5:\n      callvalue\n      dup1\n      iszero\n      tag_27\n      jumpi\n      revert(0x00, 0x00)\n    tag_27:\n      pop\n      tag_28\n      0x04\n      dup1\n      calldatasize\n      sub\n      dup2\n      add\n      swap1\n      tag_29\n      swap2\n      swap1\n      tag_13\n      jump\t// in\n    tag_29:\n      tag_30\n      jump\t// in\n    tag_28:\n      mload(0x40)\n      tag_31\n      swap2\n      swap1\n      tag_32\n      jump\t// in\n    tag_31:\n      mload(0x40)\n      dup1\n      swap2\n      sub\n      swap1\n      return\n        /* \"contracts/fundMe/fundme.sol\":85:105  address public owner */\n    tag_6:\n      callvalue\n      dup1\n      iszero\n      tag_33\n      jumpi\n      revert(0x00, 0x00)\n    tag_33:\n      pop\n      tag_34\n      tag_35\n      jump\t// in\n    tag_34:\n      mload(0x40)\n      tag_36\n      swap2\n      swap1\n      tag_26\n      jump\t// in\n    tag_36:\n      mload(0x40)\n      dup1\n      swap2\n      sub\n      swap1\n      return\n        /* \"contracts/fundMe/fundme.sol\":1297:1389  function getDonors() public view returns (address[] memory) {... */\n    tag_7:\n      callvalue\n      dup1\n      iszero\n      tag_37\n      jumpi\n      revert(0x00, 0x00)\n    tag_37:\n      pop\n      tag_38\n      tag_39\n      jump\t// in\n    tag_38:\n      mload(0x40)\n      tag_40\n      swap2\n      swap1\n      tag_41\n      jump\t// in\n    tag_40:\n      mload(0x40)\n      dup1\n      swap2\n      sub\n      swap1\n      return\n        /* \"contracts/fundMe/fundme.sol\":537:857  function deposit() public payable {... */\n    tag_8:\n      tag_42\n      tag_43\n      jump\t// in\n    tag_42:\n      stop\n        /* \"contracts/fundMe/fundme.sol\":160:199  mapping(address => bool) public isDonor */\n    tag_14:\n      mstore(0x20, 0x02)\n      dup1\n      0x00\n      mstore\n      keccak256(0x00, 0x40)\n      0x00\n      swap2\n      pop\n      sload\n      swap1\n      0x0100\n      exp\n      swap1\n      div\n      0xff\n      and\n      dup2\n      jump\t// out\n        /* \"contracts/fundMe/fundme.sol\":865:1289  function withdraw() public onlyOwner {... */\n    tag_19:\n        /* \"contracts/fundMe/fundme.sol\":469:479  msg.sender */\n      caller\n        /* \"contracts/fundMe/fundme.sol\":460:479  owner == msg.sender */\n      0xffffffffffffffffffffffffffffffffffffffff\n      and\n        /* \"contracts/fundMe/fundme.sol\":460:465  owner */\n      0x00\n      0x00\n      swap1\n      sload\n      swap1\n      0x0100\n      exp\n      swap1\n      div\n      0xffffffffffffffffffffffffffffffffffffffff\n      and\n        /* \"contracts/fundMe/fundme.sol\":460:479  owner == msg.sender */\n      0xffffffffffffffffffffffffffffffffffffffff\n      and\n      eq\n        /* \"contracts/fundMe/fundme.sol\":452:509  require(owner == msg.sender, \"Only owner has permission\") */\n      tag_45\n      jumpi\n      mload(0x40)\n      0x08c379a000000000000000000000000000000000000000000000000000000000\n      dup2\n      mstore\n      0x04\n      add\n      tag_46\n      swap1\n      tag_47\n      jump\t// in\n    tag_46:\n      mload(0x40)\n      dup1\n      swap2\n      sub\n      swap1\n      revert\n    tag_45:\n        /* \"contracts/fundMe/fundme.sol\":913:928  uint256 balance */\n      0x00\n        /* \"contracts/fundMe/fundme.sol\":931:952  address(this).balance */\n      selfbalance\n        /* \"contracts/fundMe/fundme.sol\":913:952  uint256 balance = address(this).balance */\n      swap1\n      pop\n        /* \"contracts/fundMe/fundme.sol\":966:978  bool success */\n      0x00\n        /* \"contracts/fundMe/fundme.sol\":992:997  owner */\n      0x00\n      0x00\n      swap1\n      sload\n      swap1\n      0x0100\n      exp\n      swap1\n      div\n      0xffffffffffffffffffffffffffffffffffffffff\n      and\n        /* \"contracts/fundMe/fundme.sol\":984:1003  payable(owner).call */\n      0xffffffffffffffffffffffffffffffffffffffff\n      and\n        /* \"contracts/fundMe/fundme.sol\":1011:1018  balance */\n      dup3\n        /* \"contracts/fundMe/fundme.sol\":984:1023  payable(owner).call{value: balance}(\"\") */\n      mload(0x40)\n      tag_49\n      swap1\n      tag_50\n      jump\t// in\n    tag_49:\n      0x00\n      mload(0x40)\n      dup1\n      dup4\n      sub\n      dup2\n      dup6\n      dup8\n      gas\n      call\n      swap3\n      pop\n      pop\n      pop\n      returndatasize\n      dup1\n      0x00\n      dup2\n      eq\n      tag_53\n      jumpi\n      mload(0x40)\n      swap2\n      pop\n      and(add(returndatasize, 0x3f), not(0x1f))\n      dup3\n      add\n      0x40\n      mstore\n      returndatasize\n      dup3\n      mstore\n      returndatasize\n      0x00\n      0x20\n      dup5\n      add\n      returndatacopy\n      jump(tag_52)\n    tag_53:\n      0x60\n      swap2\n      pop\n    tag_52:\n      pop\n        /* \"contracts/fundMe/fundme.sol\":965:1023  (bool success, ) = payable(owner).call{value: balance}(\"\") */\n      pop\n      swap1\n      pop\n        /* \"contracts/fundMe/fundme.sol\":1042:1049  success */\n      dup1\n        /* \"contracts/fundMe/fundme.sol\":1034:1069  require(success, \"Transfer failed\") */\n      tag_54\n      jumpi\n      mload(0x40)\n      0x08c379a000000000000000000000000000000000000000000000000000000000\n      dup2\n      mstore\n      0x04\n      add\n      tag_55\n      swap1\n      tag_56\n      jump\t// in\n    tag_55:\n      mload(0x40)\n      dup1\n      swap2\n      sub\n      swap1\n      revert\n    tag_54:\n        /* \"contracts/fundMe/fundme.sol\":1097:1102  owner */\n      0x00\n      0x00\n      swap1\n      sload\n      swap1\n      0x0100\n      exp\n      swap1\n      div\n      0xffffffffffffffffffffffffffffffffffffffff\n      and\n        /* \"contracts/fundMe/fundme.sol\":1087:1112  Withdrawn(owner, balance) */\n      0xffffffffffffffffffffffffffffffffffffffff\n      and\n      0x7084f5476618d8e60b11ef0d7d3f06914655adb8793e28ff7f018d4c76d505d5\n        /* \"contracts/fundMe/fundme.sol\":1104:1111  balance */\n      dup4\n        /* \"contracts/fundMe/fundme.sol\":1087:1112  Withdrawn(owner, balance) */\n      mload(0x40)\n      tag_57\n      swap2\n      swap1\n      tag_32\n      jump\t// in\n    tag_57:\n      mload(0x40)\n      dup1\n      swap2\n      sub\n      swap1\n      log2\n        /* \"contracts/fundMe/fundme.sol\":1130:1139  uint256 i */\n      0x00\n        /* \"contracts/fundMe/fundme.sol\":1142:1143  0 */\n      0x00\n        /* \"contracts/fundMe/fundme.sol\":1130:1143  uint256 i = 0 */\n      swap1\n      pop\n        /* \"contracts/fundMe/fundme.sol\":1125:1256  for (uint256 i = 0; i < donors.length; i++) {... */\n    tag_58:\n        /* \"contracts/fundMe/fundme.sol\":1149:1155  donors */\n      0x03\n        /* \"contracts/fundMe/fundme.sol\":1149:1162  donors.length */\n      dup1\n      sload\n      swap1\n      pop\n        /* \"contracts/fundMe/fundme.sol\":1145:1146  i */\n      dup2\n        /* \"contracts/fundMe/fundme.sol\":1145:1162  i < donors.length */\n      lt\n        /* \"contracts/fundMe/fundme.sol\":1125:1256  for (uint256 i = 0; i < donors.length; i++) {... */\n      iszero\n      tag_59\n      jumpi\n        /* \"contracts/fundMe/fundme.sol\":1202:1203  0 */\n      0x00\n        /* \"contracts/fundMe/fundme.sol\":1184:1188  user */\n      0x01\n        /* \"contracts/fundMe/fundme.sol\":1184:1199  user[donors[i]] */\n      0x00\n        /* \"contracts/fundMe/fundme.sol\":1189:1195  donors */\n      0x03\n        /* \"contracts/fundMe/fundme.sol\":1196:1197  i */\n      dup5\n        /* \"contracts/fundMe/fundme.sol\":1189:1198  donors[i] */\n      dup2\n      sload\n      dup2\n      lt\n      tag_61\n      jumpi\n      tag_62\n      tag_63\n      jump\t// in\n    tag_62:\n    tag_61:\n      swap1\n      0x00\n      mstore\n      keccak256(0x00, 0x20)\n      add\n      0x00\n      swap1\n      sload\n      swap1\n      0x0100\n      exp\n      swap1\n      div\n      0xffffffffffffffffffffffffffffffffffffffff\n      and\n        /* \"contracts/fundMe/fundme.sol\":1184:1199  user[donors[i]] */\n      0xffffffffffffffffffffffffffffffffffffffff\n      and\n      0xffffffffffffffffffffffffffffffffffffffff\n      and\n      dup2\n      mstore\n      0x20\n      add\n      swap1\n      dup2\n      mstore\n      0x20\n      add\n      0x00\n      keccak256\n        /* \"contracts/fundMe/fundme.sol\":1184:1203  user[donors[i]] = 0 */\n      dup2\n      swap1\n      sstore\n      pop\n        /* \"contracts/fundMe/fundme.sol\":1239:1244  false */\n      0x00\n        /* \"contracts/fundMe/fundme.sol\":1218:1225  isDonor */\n      0x02\n        /* \"contracts/fundMe/fundme.sol\":1218:1236  isDonor[donors[i]] */\n      0x00\n        /* \"contracts/fundMe/fundme.sol\":1226:1232  donors */\n      0x03\n        /* \"contracts/fundMe/fundme.sol\":1233:1234  i */\n      dup5\n        /* \"contracts/fundMe/fundme.sol\":1226:1235  donors[i] */\n      dup2\n      sload\n      dup2\n      lt\n      tag_65\n      jumpi\n      tag_66\n      tag_63\n      jump\t// in\n    tag_66:\n    tag_65:\n      swap1\n      0x00\n      mstore\n      keccak256(0x00, 0x20)\n      add\n      0x00\n      swap1\n      sload\n      swap1\n      0x0100\n      exp\n      swap1\n      div\n      0xffffffffffffffffffffffffffffffffffffffff\n      and\n        /* \"contracts/fundMe/fundme.sol\":1218:1236  isDonor[donors[i]] */\n      0xffffffffffffffffffffffffffffffffffffffff\n      and\n      0xffffffffffffffffffffffffffffffffffffffff\n      and\n      dup2\n      mstore\n      0x20\n      add\n      swap1\n      dup2\n      mstore\n      0x20\n      add\n      0x00\n      keccak256\n      0x00\n        /* \"contracts/fundMe/fundme.sol\":1218:1244  isDonor[donors[i]] = false */\n      0x0100\n      exp\n      dup2\n      sload\n      dup2\n      0xff\n      mul\n      not\n      and\n      swap1\n      dup4\n      iszero\n      iszero\n      mul\n      or\n      swap1\n      sstore\n      pop\n        /* \"contracts/fundMe/fundme.sol\":1164:1167  i++ */\n      dup1\n      dup1\n      0x01\n      add\n      swap2\n      pop\n      pop\n        /* \"contracts/fundMe/fundme.sol\":1125:1256  for (uint256 i = 0; i < donors.length; i++) {... */\n      jump(tag_58)\n    tag_59:\n      pop\n        /* \"contracts/fundMe/fundme.sol\":1275:1281  donors */\n      0x03\n      0x00\n        /* \"contracts/fundMe/fundme.sol\":1268:1281  delete donors */\n      tag_68\n      swap2\n      swap1\n      tag_69\n      jump\t// in\n    tag_68:\n        /* \"contracts/fundMe/fundme.sol\":902:1289  {... */\n      pop\n      pop\n        /* \"contracts/fundMe/fundme.sol\":865:1289  function withdraw() public onlyOwner {... */\n      jump\t// out\n        /* \"contracts/fundMe/fundme.sol\":206:229  address[] public donors */\n    tag_24:\n      0x03\n      dup2\n      dup2\n      sload\n      dup2\n      lt\n      tag_70\n      jumpi\n      0x00\n      dup1\n      revert\n    tag_70:\n      swap1\n      0x00\n      mstore\n      keccak256(0x00, 0x20)\n      add\n      0x00\n      swap2\n      pop\n      sload\n      swap1\n      0x0100\n      exp\n      swap1\n      div\n      0xffffffffffffffffffffffffffffffffffffffff\n      and\n      dup2\n      jump\t// out\n        /* \"contracts/fundMe/fundme.sol\":114:153  mapping(address => uint256) public user */\n    tag_30:\n      mstore(0x20, 0x01)\n      dup1\n      0x00\n      mstore\n      keccak256(0x00, 0x40)\n      0x00\n      swap2\n      pop\n      swap1\n      pop\n      sload\n      dup2\n      jump\t// out\n        /* \"contracts/fundMe/fundme.sol\":85:105  address public owner */\n    tag_35:\n      0x00\n      0x00\n      swap1\n      sload\n      swap1\n      0x0100\n      exp\n      swap1\n      div\n      0xffffffffffffffffffffffffffffffffffffffff\n      and\n      dup2\n      jump\t// out\n        /* \"contracts/fundMe/fundme.sol\":1297:1389  function getDonors() public view returns (address[] memory) {... */\n    tag_39:\n        /* \"contracts/fundMe/fundme.sol\":1339:1355  address[] memory */\n      0x60\n        /* \"contracts/fundMe/fundme.sol\":1375:1381  donors */\n      0x03\n        /* \"contracts/fundMe/fundme.sol\":1368:1381  return donors */\n      dup1\n      sload\n      dup1\n      0x20\n      mul\n      0x20\n      add\n      mload(0x40)\n      swap1\n      dup2\n      add\n      0x40\n      mstore\n      dup1\n      swap3\n      swap2\n      swap1\n      dup2\n      dup2\n      mstore\n      0x20\n      add\n      dup3\n      dup1\n      sload\n      dup1\n      iszero\n      tag_73\n      jumpi\n      0x20\n      mul\n      dup3\n      add\n      swap2\n      swap1\n      0x00\n      mstore\n      keccak256(0x00, 0x20)\n      swap1\n    tag_74:\n      dup2\n      0x00\n      swap1\n      sload\n      swap1\n      0x0100\n      exp\n      swap1\n      div\n      0xffffffffffffffffffffffffffffffffffffffff\n      and\n      0xffffffffffffffffffffffffffffffffffffffff\n      and\n      dup2\n      mstore\n      0x20\n      add\n      swap1\n      0x01\n      add\n      swap1\n      dup1\n      dup4\n      gt\n      tag_74\n      jumpi\n    tag_73:\n      pop\n      pop\n      pop\n      pop\n      pop\n      swap1\n      pop\n        /* \"contracts/fundMe/fundme.sol\":1297:1389  function getDonors() public view returns (address[] memory) {... */\n      swap1\n      jump\t// out\n        /* \"contracts/fundMe/fundme.sol\":537:857  function deposit() public payable {... */\n    tag_43:\n        /* \"contracts/fundMe/fundme.sol\":602:603  0 */\n      0x00\n        /* \"contracts/fundMe/fundme.sol\":590:599  msg.value */\n      callvalue\n        /* \"contracts/fundMe/fundme.sol\":590:603  msg.value > 0 */\n      gt\n        /* \"contracts/fundMe/fundme.sol\":582:628  require(msg.value > 0, \"Zero ETH not allowed\") */\n      tag_76\n      jumpi\n      mload(0x40)\n      0x08c379a000000000000000000000000000000000000000000000000000000000\n      dup2\n      mstore\n      0x04\n      add\n      tag_77\n      swap1\n      tag_78\n      jump\t// in\n    tag_77:\n      mload(0x40)\n      dup1\n      swap2\n      sub\n      swap1\n      revert\n    tag_76:\n        /* \"contracts/fundMe/fundme.sol\":646:653  isDonor */\n      0x02\n        /* \"contracts/fundMe/fundme.sol\":646:665  isDonor[msg.sender] */\n      0x00\n        /* \"contracts/fundMe/fundme.sol\":654:664  msg.sender */\n      caller\n        /* \"contracts/fundMe/fundme.sol\":646:665  isDonor[msg.sender] */\n      0xffffffffffffffffffffffffffffffffffffffff\n      and\n      0xffffffffffffffffffffffffffffffffffffffff\n      and\n      dup2\n      mstore\n      0x20\n      add\n      swap1\n      dup2\n      mstore\n      0x20\n      add\n      0x00\n      keccak256\n      0x00\n      swap1\n      sload\n      swap1\n      0x0100\n      exp\n      swap1\n      div\n      0xff\n      and\n        /* \"contracts/fundMe/fundme.sol\":641:758  if (!isDonor[msg.sender]) {... */\n      tag_79\n      jumpi\n        /* \"contracts/fundMe/fundme.sol\":682:688  donors */\n      0x03\n        /* \"contracts/fundMe/fundme.sol\":694:704  msg.sender */\n      caller\n        /* \"contracts/fundMe/fundme.sol\":682:705  donors.push(msg.sender) */\n      swap1\n      dup1\n      0x01\n      dup2\n      sload\n      add\n      dup1\n      dup3\n      sstore\n      dup1\n      swap2\n      pop\n      pop\n      0x01\n      swap1\n      sub\n      swap1\n      0x00\n      mstore\n      keccak256(0x00, 0x20)\n      add\n      0x00\n      swap1\n      swap2\n      swap1\n      swap2\n      swap1\n      swap2\n      0x0100\n      exp\n      dup2\n      sload\n      dup2\n      0xffffffffffffffffffffffffffffffffffffffff\n      mul\n      not\n      and\n      swap1\n      dup4\n      0xffffffffffffffffffffffffffffffffffffffff\n      and\n      mul\n      or\n      swap1\n      sstore\n      pop\n        /* \"contracts/fundMe/fundme.sol\":742:746  true */\n      0x01\n        /* \"contracts/fundMe/fundme.sol\":720:727  isDonor */\n      0x02\n        /* \"contracts/fundMe/fundme.sol\":720:739  isDonor[msg.sender] */\n      0x00\n        /* \"contracts/fundMe/fundme.sol\":728:738  msg.sender */\n      caller\n        /* \"contracts/fundMe/fundme.sol\":720:739  isDonor[msg.sender] */\n      0xffffffffffffffffffffffffffffffffffffffff\n      and\n      0xffffffffffffffffffffffffffffffffffffffff\n      and\n      dup2\n      mstore\n      0x20\n      add\n      swap1\n      dup2\n      mstore\n      0x20\n      add\n      0x00\n      keccak256\n      0x00\n        /* \"contracts/fundMe/fundme.sol\":720:746  isDonor[msg.sender] = true */\n      0x0100\n      exp\n      dup2\n      sload\n      dup2\n      0xff\n      mul\n      not\n      and\n      swap1\n      dup4\n      iszero\n      iszero\n      mul\n      or\n      swap1\n      sstore\n      pop\n        /* \"contracts/fundMe/fundme.sol\":641:758  if (!isDonor[msg.sender]) {... */\n    tag_79:\n        /* \"contracts/fundMe/fundme.sol\":790:799  msg.value */\n      callvalue\n        /* \"contracts/fundMe/fundme.sol\":770:774  user */\n      0x01\n        /* \"contracts/fundMe/fundme.sol\":770:786  user[msg.sender] */\n      0x00\n        /* \"contracts/fundMe/fundme.sol\":775:785  msg.sender */\n      caller\n        /* \"contracts/fundMe/fundme.sol\":770:786  user[msg.sender] */\n      0xffffffffffffffffffffffffffffffffffffffff\n      and\n      0xffffffffffffffffffffffffffffffffffffffff\n      and\n      dup2\n      mstore\n      0x20\n      add\n      swap1\n      dup2\n      mstore\n      0x20\n      add\n      0x00\n      keccak256\n      0x00\n        /* \"contracts/fundMe/fundme.sol\":770:799  user[msg.sender] += msg.value */\n      dup3\n      dup3\n      sload\n      tag_81\n      swap2\n      swap1\n      tag_82\n      jump\t// in\n    tag_81:\n      swap3\n      pop\n      pop\n      dup2\n      swap1\n      sstore\n      pop\n        /* \"contracts/fundMe/fundme.sol\":827:837  msg.sender */\n      caller\n        /* \"contracts/fundMe/fundme.sol\":817:849  Deposited(msg.sender, msg.value) */\n      0xffffffffffffffffffffffffffffffffffffffff\n      and\n      0x2da466a7b24304f47e87fa2e1e5a81b9831ce54fec19055ce277ca2f39ba42c4\n        /* \"contracts/fundMe/fundme.sol\":839:848  msg.value */\n      callvalue\n        /* \"contracts/fundMe/fundme.sol\":817:849  Deposited(msg.sender, msg.value) */\n      mload(0x40)\n      tag_83\n      swap2\n      swap1\n      tag_32\n      jump\t// in\n    tag_83:\n      mload(0x40)\n      dup1\n      swap2\n      sub\n      swap1\n      log2\n        /* \"contracts/fundMe/fundme.sol\":537:857  function deposit() public payable {... */\n      jump\t// out\n    tag_69:\n      pop\n      dup1\n      sload\n      0x00\n      dup3\n      sstore\n      swap1\n      0x00\n      mstore\n      keccak256(0x00, 0x20)\n      swap1\n      dup2\n      add\n      swap1\n      tag_85\n      swap2\n      swap1\n      tag_86\n      jump\t// in\n    tag_85:\n      pop\n      jump\t// out\n    tag_86:\n    tag_87:\n      dup1\n      dup3\n      gt\n      iszero\n      tag_88\n      jumpi\n      0x00\n      dup2\n      0x00\n      swap1\n      sstore\n      pop\n      0x01\n      add\n      jump(tag_87)\n    tag_88:\n      pop\n      swap1\n      jump\t// out\n        /* \"#utility.yul\":88:205   */\n    tag_90:\n        /* \"#utility.yul\":197:198   */\n      0x00\n        /* \"#utility.yul\":194:195   */\n      0x00\n        /* \"#utility.yul\":187:199   */\n      revert\n        /* \"#utility.yul\":334:460   */\n    tag_92:\n        /* \"#utility.yul\":371:378   */\n      0x00\n        /* \"#utility.yul\":411:453   */\n      0xffffffffffffffffffffffffffffffffffffffff\n        /* \"#utility.yul\":404:409   */\n      dup3\n        /* \"#utility.yul\":400:454   */\n      and\n        /* \"#utility.yul\":389:454   */\n      swap1\n      pop\n        /* \"#utility.yul\":334:460   */\n      swap2\n      swap1\n      pop\n      jump\t// out\n        /* \"#utility.yul\":466:562   */\n    tag_93:\n        /* \"#utility.yul\":503:510   */\n      0x00\n        /* \"#utility.yul\":532:556   */\n      tag_127\n        /* \"#utility.yul\":550:555   */\n      dup3\n        /* \"#utility.yul\":532:556   */\n      tag_92\n      jump\t// in\n    tag_127:\n        /* \"#utility.yul\":521:556   */\n      swap1\n      pop\n        /* \"#utility.yul\":466:562   */\n      swap2\n      swap1\n      pop\n      jump\t// out\n        /* \"#utility.yul\":568:690   */\n    tag_94:\n        /* \"#utility.yul\":641:665   */\n      tag_129\n        /* \"#utility.yul\":659:664   */\n      dup2\n        /* \"#utility.yul\":641:665   */\n      tag_93\n      jump\t// in\n    tag_129:\n        /* \"#utility.yul\":634:639   */\n      dup2\n        /* \"#utility.yul\":631:666   */\n      eq\n        /* \"#utility.yul\":621:684   */\n      tag_130\n      jumpi\n        /* \"#utility.yul\":680:681   */\n      0x00\n        /* \"#utility.yul\":677:678   */\n      0x00\n        /* \"#utility.yul\":670:682   */\n      revert\n        /* \"#utility.yul\":621:684   */\n    tag_130:\n        /* \"#utility.yul\":568:690   */\n      pop\n      jump\t// out\n        /* \"#utility.yul\":696:835   */\n    tag_95:\n        /* \"#utility.yul\":742:747   */\n      0x00\n        /* \"#utility.yul\":780:786   */\n      dup2\n        /* \"#utility.yul\":767:787   */\n      calldataload\n        /* \"#utility.yul\":758:787   */\n      swap1\n      pop\n        /* \"#utility.yul\":796:829   */\n      tag_132\n        /* \"#utility.yul\":823:828   */\n      dup2\n        /* \"#utility.yul\":796:829   */\n      tag_94\n      jump\t// in\n    tag_132:\n        /* \"#utility.yul\":696:835   */\n      swap3\n      swap2\n      pop\n      pop\n      jump\t// out\n        /* \"#utility.yul\":841:1170   */\n    tag_13:\n        /* \"#utility.yul\":900:906   */\n      0x00\n        /* \"#utility.yul\":949:951   */\n      0x20\n        /* \"#utility.yul\":937:946   */\n      dup3\n        /* \"#utility.yul\":928:935   */\n      dup5\n        /* \"#utility.yul\":924:947   */\n      sub\n        /* \"#utility.yul\":920:952   */\n      slt\n        /* \"#utility.yul\":917:1036   */\n      iszero\n      tag_134\n      jumpi\n        /* \"#utility.yul\":955:1034   */\n      tag_135\n      tag_90\n      jump\t// in\n    tag_135:\n        /* \"#utility.yul\":917:1036   */\n    tag_134:\n        /* \"#utility.yul\":1075:1076   */\n      0x00\n        /* \"#utility.yul\":1100:1153   */\n      tag_136\n        /* \"#utility.yul\":1145:1152   */\n      dup5\n        /* \"#utility.yul\":1136:1142   */\n      dup3\n        /* \"#utility.yul\":1125:1134   */\n      dup6\n        /* \"#utility.yul\":1121:1143   */\n      add\n        /* \"#utility.yul\":1100:1153   */\n      tag_95\n      jump\t// in\n    tag_136:\n        /* \"#utility.yul\":1090:1153   */\n      swap2\n      pop\n        /* \"#utility.yul\":1046:1163   */\n      pop\n        /* \"#utility.yul\":841:1170   */\n      swap3\n      swap2\n      pop\n      pop\n      jump\t// out\n        /* \"#utility.yul\":1176:1266   */\n    tag_96:\n        /* \"#utility.yul\":1210:1217   */\n      0x00\n        /* \"#utility.yul\":1253:1258   */\n      dup2\n        /* \"#utility.yul\":1246:1259   */\n      iszero\n        /* \"#utility.yul\":1239:1260   */\n      iszero\n        /* \"#utility.yul\":1228:1260   */\n      swap1\n      pop\n        /* \"#utility.yul\":1176:1266   */\n      swap2\n      swap1\n      pop\n      jump\t// out\n        /* \"#utility.yul\":1272:1381   */\n    tag_97:\n        /* \"#utility.yul\":1353:1374   */\n      tag_139\n        /* \"#utility.yul\":1368:1373   */\n      dup2\n        /* \"#utility.yul\":1353:1374   */\n      tag_96\n      jump\t// in\n    tag_139:\n        /* \"#utility.yul\":1348:1351   */\n      dup3\n        /* \"#utility.yul\":1341:1375   */\n      mstore\n        /* \"#utility.yul\":1272:1381   */\n      pop\n      pop\n      jump\t// out\n        /* \"#utility.yul\":1387:1597   */\n    tag_16:\n        /* \"#utility.yul\":1474:1478   */\n      0x00\n        /* \"#utility.yul\":1512:1514   */\n      0x20\n        /* \"#utility.yul\":1501:1510   */\n      dup3\n        /* \"#utility.yul\":1497:1515   */\n      add\n        /* \"#utility.yul\":1489:1515   */\n      swap1\n      pop\n        /* \"#utility.yul\":1525:1590   */\n      tag_141\n        /* \"#utility.yul\":1587:1588   */\n      0x00\n        /* \"#utility.yul\":1576:1585   */\n      dup4\n        /* \"#utility.yul\":1572:1589   */\n      add\n        /* \"#utility.yul\":1563:1569   */\n      dup5\n        /* \"#utility.yul\":1525:1590   */\n      tag_97\n      jump\t// in\n    tag_141:\n        /* \"#utility.yul\":1387:1597   */\n      swap3\n      swap2\n      pop\n      pop\n      jump\t// out\n        /* \"#utility.yul\":1603:1680   */\n    tag_98:\n        /* \"#utility.yul\":1640:1647   */\n      0x00\n        /* \"#utility.yul\":1669:1674   */\n      dup2\n        /* \"#utility.yul\":1658:1674   */\n      swap1\n      pop\n        /* \"#utility.yul\":1603:1680   */\n      swap2\n      swap1\n      pop\n      jump\t// out\n        /* \"#utility.yul\":1686:1808   */\n    tag_99:\n        /* \"#utility.yul\":1759:1783   */\n      tag_144\n        /* \"#utility.yul\":1777:1782   */\n      dup2\n        /* \"#utility.yul\":1759:1783   */\n      tag_98\n      jump\t// in\n    tag_144:\n        /* \"#utility.yul\":1752:1757   */\n      dup2\n        /* \"#utility.yul\":1749:1784   */\n      eq\n        /* \"#utility.yul\":1739:1802   */\n      tag_145\n      jumpi\n        /* \"#utility.yul\":1798:1799   */\n      0x00\n        /* \"#utility.yul\":1795:1796   */\n      0x00\n        /* \"#utility.yul\":1788:1800   */\n      revert\n        /* \"#utility.yul\":1739:1802   */\n    tag_145:\n        /* \"#utility.yul\":1686:1808   */\n      pop\n      jump\t// out\n        /* \"#utility.yul\":1814:1953   */\n    tag_100:\n        /* \"#utility.yul\":1860:1865   */\n      0x00\n        /* \"#utility.yul\":1898:1904   */\n      dup2\n        /* \"#utility.yul\":1885:1905   */\n      calldataload\n        /* \"#utility.yul\":1876:1905   */\n      swap1\n      pop\n        /* \"#utility.yul\":1914:1947   */\n      tag_147\n        /* \"#utility.yul\":1941:1946   */\n      dup2\n        /* \"#utility.yul\":1914:1947   */\n      tag_99\n      jump\t// in\n    tag_147:\n        /* \"#utility.yul\":1814:1953   */\n      swap3\n      swap2\n      pop\n      pop\n      jump\t// out\n        /* \"#utility.yul\":1959:2288   */\n    tag_23:\n        /* \"#utility.yul\":2018:2024   */\n      0x00\n        /* \"#utility.yul\":2067:2069   */\n      0x20\n        /* \"#utility.yul\":2055:2064   */\n      dup3\n        /* \"#utility.yul\":2046:2053   */\n      dup5\n        /* \"#utility.yul\":2042:2065   */\n      sub\n        /* \"#utility.yul\":2038:2070   */\n      slt\n        /* \"#utility.yul\":2035:2154   */\n      iszero\n      tag_149\n      jumpi\n        /* \"#utility.yul\":2073:2152   */\n      tag_150\n      tag_90\n      jump\t// in\n    tag_150:\n        /* \"#utility.yul\":2035:2154   */\n    tag_149:\n        /* \"#utility.yul\":2193:2194   */\n      0x00\n        /* \"#utility.yul\":2218:2271   */\n      tag_151\n        /* \"#utility.yul\":2263:2270   */\n      dup5\n        /* \"#utility.yul\":2254:2260   */\n      dup3\n        /* \"#utility.yul\":2243:2252   */\n      dup6\n        /* \"#utility.yul\":2239:2261   */\n      add\n        /* \"#utility.yul\":2218:2271   */\n      tag_100\n      jump\t// in\n    tag_151:\n        /* \"#utility.yul\":2208:2271   */\n      swap2\n      pop\n        /* \"#utility.yul\":2164:2281   */\n      pop\n        /* \"#utility.yul\":1959:2288   */\n      swap3\n      swap2\n      pop\n      pop\n      jump\t// out\n        /* \"#utility.yul\":2294:2412   */\n    tag_101:\n        /* \"#utility.yul\":2381:2405   */\n      tag_153\n        /* \"#utility.yul\":2399:2404   */\n      dup2\n        /* \"#utility.yul\":2381:2405   */\n      tag_93\n      jump\t// in\n    tag_153:\n        /* \"#utility.yul\":2376:2379   */\n      dup3\n        /* \"#utility.yul\":2369:2406   */\n      mstore\n        /* \"#utility.yul\":2294:2412   */\n      pop\n      pop\n      jump\t// out\n        /* \"#utility.yul\":2418:2640   */\n    tag_26:\n        /* \"#utility.yul\":2511:2515   */\n      0x00\n        /* \"#utility.yul\":2549:2551   */\n      0x20\n        /* \"#utility.yul\":2538:2547   */\n      dup3\n        /* \"#utility.yul\":2534:2552   */\n      add\n        /* \"#utility.yul\":2526:2552   */\n      swap1\n      pop\n        /* \"#utility.yul\":2562:2633   */\n      tag_155\n        /* \"#utility.yul\":2630:2631   */\n      0x00\n        /* \"#utility.yul\":2619:2628   */\n      dup4\n        /* \"#utility.yul\":2615:2632   */\n      add\n        /* \"#utility.yul\":2606:2612   */\n      dup5\n        /* \"#utility.yul\":2562:2633   */\n      tag_101\n      jump\t// in\n    tag_155:\n        /* \"#utility.yul\":2418:2640   */\n      swap3\n      swap2\n      pop\n      pop\n      jump\t// out\n        /* \"#utility.yul\":2646:2764   */\n    tag_102:\n        /* \"#utility.yul\":2733:2757   */\n      tag_157\n        /* \"#utility.yul\":2751:2756   */\n      dup2\n        /* \"#utility.yul\":2733:2757   */\n      tag_98\n      jump\t// in\n    tag_157:\n        /* \"#utility.yul\":2728:2731   */\n      dup3\n        /* \"#utility.yul\":2721:2758   */\n      mstore\n        /* \"#utility.yul\":2646:2764   */\n      pop\n      pop\n      jump\t// out\n        /* \"#utility.yul\":2770:2992   */\n    tag_32:\n        /* \"#utility.yul\":2863:2867   */\n      0x00\n        /* \"#utility.yul\":2901:2903   */\n      0x20\n        /* \"#utility.yul\":2890:2899   */\n      dup3\n        /* \"#utility.yul\":2886:2904   */\n      add\n        /* \"#utility.yul\":2878:2904   */\n      swap1\n      pop\n        /* \"#utility.yul\":2914:2985   */\n      tag_159\n        /* \"#utility.yul\":2982:2983   */\n      0x00\n        /* \"#utility.yul\":2971:2980   */\n      dup4\n        /* \"#utility.yul\":2967:2984   */\n      add\n        /* \"#utility.yul\":2958:2964   */\n      dup5\n        /* \"#utility.yul\":2914:2985   */\n      tag_102\n      jump\t// in\n    tag_159:\n        /* \"#utility.yul\":2770:2992   */\n      swap3\n      swap2\n      pop\n      pop\n      jump\t// out\n        /* \"#utility.yul\":2998:3112   */\n    tag_103:\n        /* \"#utility.yul\":3065:3071   */\n      0x00\n        /* \"#utility.yul\":3099:3104   */\n      dup2\n        /* \"#utility.yul\":3093:3105   */\n      mload\n        /* \"#utility.yul\":3083:3105   */\n      swap1\n      pop\n        /* \"#utility.yul\":2998:3112   */\n      swap2\n      swap1\n      pop\n      jump\t// out\n        /* \"#utility.yul\":3118:3302   */\n    tag_104:\n        /* \"#utility.yul\":3217:3228   */\n      0x00\n        /* \"#utility.yul\":3251:3257   */\n      dup3\n        /* \"#utility.yul\":3246:3249   */\n      dup3\n        /* \"#utility.yul\":3239:3258   */\n      mstore\n        /* \"#utility.yul\":3291:3295   */\n      0x20\n        /* \"#utility.yul\":3286:3289   */\n      dup3\n        /* \"#utility.yul\":3282:3296   */\n      add\n        /* \"#utility.yul\":3267:3296   */\n      swap1\n      pop\n        /* \"#utility.yul\":3118:3302   */\n      swap3\n      swap2\n      pop\n      pop\n      jump\t// out\n        /* \"#utility.yul\":3308:3440   */\n    tag_105:\n        /* \"#utility.yul\":3375:3379   */\n      0x00\n        /* \"#utility.yul\":3398:3401   */\n      dup2\n        /* \"#utility.yul\":3390:3401   */\n      swap1\n      pop\n        /* \"#utility.yul\":3428:3432   */\n      0x20\n        /* \"#utility.yul\":3423:3426   */\n      dup3\n        /* \"#utility.yul\":3419:3433   */\n      add\n        /* \"#utility.yul\":3411:3433   */\n      swap1\n      pop\n        /* \"#utility.yul\":3308:3440   */\n      swap2\n      swap1\n      pop\n      jump\t// out\n        /* \"#utility.yul\":3446:3554   */\n    tag_106:\n        /* \"#utility.yul\":3523:3547   */\n      tag_164\n        /* \"#utility.yul\":3541:3546   */\n      dup2\n        /* \"#utility.yul\":3523:3547   */\n      tag_93\n      jump\t// in\n    tag_164:\n        /* \"#utility.yul\":3518:3521   */\n      dup3\n        /* \"#utility.yul\":3511:3548   */\n      mstore\n        /* \"#utility.yul\":3446:3554   */\n      pop\n      pop\n      jump\t// out\n        /* \"#utility.yul\":3560:3739   */\n    tag_107:\n        /* \"#utility.yul\":3629:3639   */\n      0x00\n        /* \"#utility.yul\":3650:3696   */\n      tag_166\n        /* \"#utility.yul\":3692:3695   */\n      dup4\n        /* \"#utility.yul\":3684:3690   */\n      dup4\n        /* \"#utility.yul\":3650:3696   */\n      tag_106\n      jump\t// in\n    tag_166:\n        /* \"#utility.yul\":3728:3732   */\n      0x20\n        /* \"#utility.yul\":3723:3726   */\n      dup4\n        /* \"#utility.yul\":3719:3733   */\n      add\n        /* \"#utility.yul\":3705:3733   */\n      swap1\n      pop\n        /* \"#utility.yul\":3560:3739   */\n      swap3\n      swap2\n      pop\n      pop\n      jump\t// out\n        /* \"#utility.yul\":3745:3858   */\n    tag_108:\n        /* \"#utility.yul\":3815:3819   */\n      0x00\n        /* \"#utility.yul\":3847:3851   */\n      0x20\n        /* \"#utility.yul\":3842:3845   */\n      dup3\n        /* \"#utility.yul\":3838:3852   */\n      add\n        /* \"#utility.yul\":3830:3852   */\n      swap1\n      pop\n        /* \"#utility.yul\":3745:3858   */\n      swap2\n      swap1\n      pop\n      jump\t// out\n        /* \"#utility.yul\":3894:4626   */\n    tag_109:\n        /* \"#utility.yul\":4013:4016   */\n      0x00\n        /* \"#utility.yul\":4042:4096   */\n      tag_169\n        /* \"#utility.yul\":4090:4095   */\n      dup3\n        /* \"#utility.yul\":4042:4096   */\n      tag_103\n      jump\t// in\n    tag_169:\n        /* \"#utility.yul\":4112:4198   */\n      tag_170\n        /* \"#utility.yul\":4191:4197   */\n      dup2\n        /* \"#utility.yul\":4186:4189   */\n      dup6\n        /* \"#utility.yul\":4112:4198   */\n      tag_104\n      jump\t// in\n    tag_170:\n        /* \"#utility.yul\":4105:4198   */\n      swap4\n      pop\n        /* \"#utility.yul\":4222:4278   */\n      tag_171\n        /* \"#utility.yul\":4272:4277   */\n      dup4\n        /* \"#utility.yul\":4222:4278   */\n      tag_105\n      jump\t// in\n    tag_171:\n        /* \"#utility.yul\":4301:4308   */\n      dup1\n        /* \"#utility.yul\":4332:4333   */\n      0x00\n        /* \"#utility.yul\":4317:4601   */\n    tag_172:\n        /* \"#utility.yul\":4342:4348   */\n      dup4\n        /* \"#utility.yul\":4339:4340   */\n      dup2\n        /* \"#utility.yul\":4336:4349   */\n      lt\n        /* \"#utility.yul\":4317:4601   */\n      iszero\n      tag_174\n      jumpi\n        /* \"#utility.yul\":4418:4424   */\n      dup2\n        /* \"#utility.yul\":4412:4425   */\n      mload\n        /* \"#utility.yul\":4445:4508   */\n      tag_175\n        /* \"#utility.yul\":4504:4507   */\n      dup9\n        /* \"#utility.yul\":4489:4502   */\n      dup3\n        /* \"#utility.yul\":4445:4508   */\n      tag_107\n      jump\t// in\n    tag_175:\n        /* \"#utility.yul\":4438:4508   */\n      swap8\n      pop\n        /* \"#utility.yul\":4531:4591   */\n      tag_176\n        /* \"#utility.yul\":4584:4590   */\n      dup4\n        /* \"#utility.yul\":4531:4591   */\n      tag_108\n      jump\t// in\n    tag_176:\n        /* \"#utility.yul\":4521:4591   */\n      swap3\n      pop\n        /* \"#utility.yul\":4377:4601   */\n      pop\n        /* \"#utility.yul\":4364:4365   */\n      0x01\n        /* \"#utility.yul\":4361:4362   */\n      dup2\n        /* \"#utility.yul\":4357:4366   */\n      add\n        /* \"#utility.yul\":4352:4366   */\n      swap1\n      pop\n        /* \"#utility.yul\":4317:4601   */\n      jump(tag_172)\n    tag_174:\n        /* \"#utility.yul\":4321:4335   */\n      pop\n        /* \"#utility.yul\":4617:4620   */\n      dup6\n        /* \"#utility.yul\":4610:4620   */\n      swap4\n      pop\n        /* \"#utility.yul\":4018:4626   */\n      pop\n      pop\n      pop\n        /* \"#utility.yul\":3894:4626   */\n      swap3\n      swap2\n      pop\n      pop\n      jump\t// out\n        /* \"#utility.yul\":4632:5005   */\n    tag_41:\n        /* \"#utility.yul\":4775:4779   */\n      0x00\n        /* \"#utility.yul\":4813:4815   */\n      0x20\n        /* \"#utility.yul\":4802:4811   */\n      dup3\n        /* \"#utility.yul\":4798:4816   */\n      add\n        /* \"#utility.yul\":4790:4816   */\n      swap1\n      pop\n        /* \"#utility.yul\":4862:4871   */\n      dup2\n        /* \"#utility.yul\":4856:4860   */\n      dup2\n        /* \"#utility.yul\":4852:4872   */\n      sub\n        /* \"#utility.yul\":4848:4849   */\n      0x00\n        /* \"#utility.yul\":4837:4846   */\n      dup4\n        /* \"#utility.yul\":4833:4850   */\n      add\n        /* \"#utility.yul\":4826:4873   */\n      mstore\n        /* \"#utility.yul\":4890:4998   */\n      tag_178\n        /* \"#utility.yul\":4993:4997   */\n      dup2\n        /* \"#utility.yul\":4984:4990   */\n      dup5\n        /* \"#utility.yul\":4890:4998   */\n      tag_109\n      jump\t// in\n    tag_178:\n        /* \"#utility.yul\":4882:4998   */\n      swap1\n      pop\n        /* \"#utility.yul\":4632:5005   */\n      swap3\n      swap2\n      pop\n      pop\n      jump\t// out\n        /* \"#utility.yul\":5011:5180   */\n    tag_110:\n        /* \"#utility.yul\":5095:5106   */\n      0x00\n        /* \"#utility.yul\":5129:5135   */\n      dup3\n        /* \"#utility.yul\":5124:5127   */\n      dup3\n        /* \"#utility.yul\":5117:5136   */\n      mstore\n        /* \"#utility.yul\":5169:5173   */\n      0x20\n        /* \"#utility.yul\":5164:5167   */\n      dup3\n        /* \"#utility.yul\":5160:5174   */\n      add\n        /* \"#utility.yul\":5145:5174   */\n      swap1\n      pop\n        /* \"#utility.yul\":5011:5180   */\n      swap3\n      swap2\n      pop\n      pop\n      jump\t// out\n        /* \"#utility.yul\":5186:5361   */\n    tag_111:\n        /* \"#utility.yul\":5326:5353   */\n      0x4f6e6c79206f776e657220686173207065726d697373696f6e00000000000000\n        /* \"#utility.yul\":5322:5323   */\n      0x00\n        /* \"#utility.yul\":5314:5320   */\n      dup3\n        /* \"#utility.yul\":5310:5324   */\n      add\n        /* \"#utility.yul\":5303:5354   */\n      mstore\n        /* \"#utility.yul\":5186:5361   */\n      pop\n      jump\t// out\n        /* \"#utility.yul\":5367:5733   */\n    tag_112:\n        /* \"#utility.yul\":5509:5512   */\n      0x00\n        /* \"#utility.yul\":5530:5597   */\n      tag_182\n        /* \"#utility.yul\":5594:5596   */\n      0x19\n        /* \"#utility.yul\":5589:5592   */\n      dup4\n        /* \"#utility.yul\":5530:5597   */\n      tag_110\n      jump\t// in\n    tag_182:\n        /* \"#utility.yul\":5523:5597   */\n      swap2\n      pop\n        /* \"#utility.yul\":5606:5699   */\n      tag_183\n        /* \"#utility.yul\":5695:5698   */\n      dup3\n        /* \"#utility.yul\":5606:5699   */\n      tag_111\n      jump\t// in\n    tag_183:\n        /* \"#utility.yul\":5724:5726   */\n      0x20\n        /* \"#utility.yul\":5719:5722   */\n      dup3\n        /* \"#utility.yul\":5715:5727   */\n      add\n        /* \"#utility.yul\":5708:5727   */\n      swap1\n      pop\n        /* \"#utility.yul\":5367:5733   */\n      swap2\n      swap1\n      pop\n      jump\t// out\n        /* \"#utility.yul\":5739:6158   */\n    tag_47:\n        /* \"#utility.yul\":5905:5909   */\n      0x00\n        /* \"#utility.yul\":5943:5945   */\n      0x20\n        /* \"#utility.yul\":5932:5941   */\n      dup3\n        /* \"#utility.yul\":5928:5946   */\n      add\n        /* \"#utility.yul\":5920:5946   */\n      swap1\n      pop\n        /* \"#utility.yul\":5992:6001   */\n      dup2\n        /* \"#utility.yul\":5986:5990   */\n      dup2\n        /* \"#utility.yul\":5982:6002   */\n      sub\n        /* \"#utility.yul\":5978:5979   */\n      0x00\n        /* \"#utility.yul\":5967:5976   */\n      dup4\n        /* \"#utility.yul\":5963:5980   */\n      add\n        /* \"#utility.yul\":5956:6003   */\n      mstore\n        /* \"#utility.yul\":6020:6151   */\n      tag_185\n        /* \"#utility.yul\":6146:6150   */\n      dup2\n        /* \"#utility.yul\":6020:6151   */\n      tag_112\n      jump\t// in\n    tag_185:\n        /* \"#utility.yul\":6012:6151   */\n      swap1\n      pop\n        /* \"#utility.yul\":5739:6158   */\n      swap2\n      swap1\n      pop\n      jump\t// out\n        /* \"#utility.yul\":6164:6311   */\n    tag_113:\n        /* \"#utility.yul\":6265:6276   */\n      0x00\n        /* \"#utility.yul\":6302:6305   */\n      dup2\n        /* \"#utility.yul\":6287:6305   */\n      swap1\n      pop\n        /* \"#utility.yul\":6164:6311   */\n      swap3\n      swap2\n      pop\n      pop\n      jump\t// out\n        /* \"#utility.yul\":6317:6431   */\n    tag_114:\n      pop\n      jump\t// out\n        /* \"#utility.yul\":6437:6835   */\n    tag_115:\n        /* \"#utility.yul\":6596:6599   */\n      0x00\n        /* \"#utility.yul\":6617:6700   */\n      tag_189\n        /* \"#utility.yul\":6698:6699   */\n      0x00\n        /* \"#utility.yul\":6693:6696   */\n      dup4\n        /* \"#utility.yul\":6617:6700   */\n      tag_113\n      jump\t// in\n    tag_189:\n        /* \"#utility.yul\":6610:6700   */\n      swap2\n      pop\n        /* \"#utility.yul\":6709:6802   */\n      tag_190\n        /* \"#utility.yul\":6798:6801   */\n      dup3\n        /* \"#utility.yul\":6709:6802   */\n      tag_114\n      jump\t// in\n    tag_190:\n        /* \"#utility.yul\":6827:6828   */\n      0x00\n        /* \"#utility.yul\":6822:6825   */\n      dup3\n        /* \"#utility.yul\":6818:6829   */\n      add\n        /* \"#utility.yul\":6811:6829   */\n      swap1\n      pop\n        /* \"#utility.yul\":6437:6835   */\n      swap2\n      swap1\n      pop\n      jump\t// out\n        /* \"#utility.yul\":6841:7220   */\n    tag_50:\n        /* \"#utility.yul\":7025:7028   */\n      0x00\n        /* \"#utility.yul\":7047:7194   */\n      tag_192\n        /* \"#utility.yul\":7190:7193   */\n      dup3\n        /* \"#utility.yul\":7047:7194   */\n      tag_115\n      jump\t// in\n    tag_192:\n        /* \"#utility.yul\":7040:7194   */\n      swap2\n      pop\n        /* \"#utility.yul\":7211:7214   */\n      dup2\n        /* \"#utility.yul\":7204:7214   */\n      swap1\n      pop\n        /* \"#utility.yul\":6841:7220   */\n      swap2\n      swap1\n      pop\n      jump\t// out\n        /* \"#utility.yul\":7226:7391   */\n    tag_116:\n        /* \"#utility.yul\":7366:7383   */\n      0x5472616e73666572206661696c65640000000000000000000000000000000000\n        /* \"#utility.yul\":7362:7363   */\n      0x00\n        /* \"#utility.yul\":7354:7360   */\n      dup3\n        /* \"#utility.yul\":7350:7364   */\n      add\n        /* \"#utility.yul\":7343:7384   */\n      mstore\n        /* \"#utility.yul\":7226:7391   */\n      pop\n      jump\t// out\n        /* \"#utility.yul\":7397:7763   */\n    tag_117:\n        /* \"#utility.yul\":7539:7542   */\n      0x00\n        /* \"#utility.yul\":7560:7627   */\n      tag_195\n        /* \"#utility.yul\":7624:7626   */\n      0x0f\n        /* \"#utility.yul\":7619:7622   */\n      dup4\n        /* \"#utility.yul\":7560:7627   */\n      tag_110\n      jump\t// in\n    tag_195:\n        /* \"#utility.yul\":7553:7627   */\n      swap2\n      pop\n        /* \"#utility.yul\":7636:7729   */\n      tag_196\n        /* \"#utility.yul\":7725:7728   */\n      dup3\n        /* \"#utility.yul\":7636:7729   */\n      tag_116\n      jump\t// in\n    tag_196:\n        /* \"#utility.yul\":7754:7756   */\n      0x20\n        /* \"#utility.yul\":7749:7752   */\n      dup3\n        /* \"#utility.yul\":7745:7757   */\n      add\n        /* \"#utility.yul\":7738:7757   */\n      swap1\n      pop\n        /* \"#utility.yul\":7397:7763   */\n      swap2\n      swap1\n      pop\n      jump\t// out\n        /* \"#utility.yul\":7769:8188   */\n    tag_56:\n        /* \"#utility.yul\":7935:7939   */\n      0x00\n        /* \"#utility.yul\":7973:7975   */\n      0x20\n        /* \"#utility.yul\":7962:7971   */\n      dup3\n        /* \"#utility.yul\":7958:7976   */\n      add\n        /* \"#utility.yul\":7950:7976   */\n      swap1\n      pop\n        /* \"#utility.yul\":8022:8031   */\n      dup2\n        /* \"#utility.yul\":8016:8020   */\n      dup2\n        /* \"#utility.yul\":8012:8032   */\n      sub\n        /* \"#utility.yul\":8008:8009   */\n      0x00\n        /* \"#utility.yul\":7997:8006   */\n      dup4\n        /* \"#utility.yul\":7993:8010   */\n      add\n        /* \"#utility.yul\":7986:8033   */\n      mstore\n        /* \"#utility.yul\":8050:8181   */\n      tag_198\n        /* \"#utility.yul\":8176:8180   */\n      dup2\n        /* \"#utility.yul\":8050:8181   */\n      tag_117\n      jump\t// in\n    tag_198:\n        /* \"#utility.yul\":8042:8181   */\n      swap1\n      pop\n        /* \"#utility.yul\":7769:8188   */\n      swap2\n      swap1\n      pop\n      jump\t// out\n        /* \"#utility.yul\":8194:8374   */\n    tag_63:\n        /* \"#utility.yul\":8242:8319   */\n      0x4e487b7100000000000000000000000000000000000000000000000000000000\n        /* \"#utility.yul\":8239:8240   */\n      0x00\n        /* \"#utility.yul\":8232:8320   */\n      mstore\n        /* \"#utility.yul\":8339:8343   */\n      0x32\n        /* \"#utility.yul\":8336:8337   */\n      0x04\n        /* \"#utility.yul\":8329:8344   */\n      mstore\n        /* \"#utility.yul\":8363:8367   */\n      0x24\n        /* \"#utility.yul\":8360:8361   */\n      0x00\n        /* \"#utility.yul\":8353:8368   */\n      revert\n        /* \"#utility.yul\":8380:8550   */\n    tag_118:\n        /* \"#utility.yul\":8520:8542   */\n      0x5a65726f20455448206e6f7420616c6c6f776564000000000000000000000000\n        /* \"#utility.yul\":8516:8517   */\n      0x00\n        /* \"#utility.yul\":8508:8514   */\n      dup3\n        /* \"#utility.yul\":8504:8518   */\n      add\n        /* \"#utility.yul\":8497:8543   */\n      mstore\n        /* \"#utility.yul\":8380:8550   */\n      pop\n      jump\t// out\n        /* \"#utility.yul\":8556:8922   */\n    tag_119:\n        /* \"#utility.yul\":8698:8701   */\n      0x00\n        /* \"#utility.yul\":8719:8786   */\n      tag_202\n        /* \"#utility.yul\":8783:8785   */\n      0x14\n        /* \"#utility.yul\":8778:8781   */\n      dup4\n        /* \"#utility.yul\":8719:8786   */\n      tag_110\n      jump\t// in\n    tag_202:\n        /* \"#utility.yul\":8712:8786   */\n      swap2\n      pop\n        /* \"#utility.yul\":8795:8888   */\n      tag_203\n        /* \"#utility.yul\":8884:8887   */\n      dup3\n        /* \"#utility.yul\":8795:8888   */\n      tag_118\n      jump\t// in\n    tag_203:\n        /* \"#utility.yul\":8913:8915   */\n      0x20\n        /* \"#utility.yul\":8908:8911   */\n      dup3\n        /* \"#utility.yul\":8904:8916   */\n      add\n        /* \"#utility.yul\":8897:8916   */\n      swap1\n      pop\n        /* \"#utility.yul\":8556:8922   */\n      swap2\n      swap1\n      pop\n      jump\t// out\n        /* \"#utility.yul\":8928:9347   */\n    tag_78:\n        /* \"#utility.yul\":9094:9098   */\n      0x00\n        /* \"#utility.yul\":9132:9134   */\n      0x20\n        /* \"#utility.yul\":9121:9130   */\n      dup3\n        /* \"#utility.yul\":9117:9135   */\n      add\n        /* \"#utility.yul\":9109:9135   */\n      swap1\n      pop\n        /* \"#utility.yul\":9181:9190   */\n      dup2\n        /* \"#utility.yul\":9175:9179   */\n      dup2\n        /* \"#utility.yul\":9171:9191   */\n      sub\n        /* \"#utility.yul\":9167:9168   */\n      0x00\n        /* \"#utility.yul\":9156:9165   */\n      dup4\n        /* \"#utility.yul\":9152:9169   */\n      add\n        /* \"#utility.yul\":9145:9192   */\n      mstore\n        /* \"#utility.yul\":9209:9340   */\n      tag_205\n        /* \"#utility.yul\":9335:9339   */\n      dup2\n        /* \"#utility.yul\":9209:9340   */\n      tag_119\n      jump\t// in\n    tag_205:\n        /* \"#utility.yul\":9201:9340   */\n      swap1\n      pop\n        /* \"#utility.yul\":8928:9347   */\n      swap2\n      swap1\n      pop\n      jump\t// out\n        /* \"#utility.yul\":9353:9533   */\n    tag_120:\n        /* \"#utility.yul\":9401:9478   */\n      0x4e487b7100000000000000000000000000000000000000000000000000000000\n        /* \"#utility.yul\":9398:9399   */\n      0x00\n        /* \"#utility.yul\":9391:9479   */\n      mstore\n        /* \"#utility.yul\":9498:9502   */\n      0x11\n        /* \"#utility.yul\":9495:9496   */\n      0x04\n        /* \"#utility.yul\":9488:9503   */\n      mstore\n        /* \"#utility.yul\":9522:9526   */\n      0x24\n        /* \"#utility.yul\":9519:9520   */\n      0x00\n        /* \"#utility.yul\":9512:9527   */\n      revert\n        /* \"#utility.yul\":9539:9730   */\n    tag_82:\n        /* \"#utility.yul\":9579:9582   */\n      0x00\n        /* \"#utility.yul\":9598:9618   */\n      tag_208\n        /* \"#utility.yul\":9616:9617   */\n      dup3\n        /* \"#utility.yul\":9598:9618   */\n      tag_98\n      jump\t// in\n    tag_208:\n        /* \"#utility.yul\":9593:9618   */\n      swap2\n      pop\n        /* \"#utility.yul\":9632:9652   */\n      tag_209\n        /* \"#utility.yul\":9650:9651   */\n      dup4\n        /* \"#utility.yul\":9632:9652   */\n      tag_98\n      jump\t// in\n    tag_209:\n        /* \"#utility.yul\":9627:9652   */\n      swap3\n      pop\n        /* \"#utility.yul\":9675:9676   */\n      dup3\n        /* \"#utility.yul\":9672:9673   */\n      dup3\n        /* \"#utility.yul\":9668:9677   */\n      add\n        /* \"#utility.yul\":9661:9677   */\n      swap1\n      pop\n        /* \"#utility.yul\":9696:9699   */\n      dup1\n        /* \"#utility.yul\":9693:9694   */\n      dup3\n        /* \"#utility.yul\":9690:9700   */\n      gt\n        /* \"#utility.yul\":9687:9723   */\n      iszero\n      tag_210\n      jumpi\n        /* \"#utility.yul\":9703:9721   */\n      tag_211\n      tag_120\n      jump\t// in\n    tag_211:\n        /* \"#utility.yul\":9687:9723   */\n    tag_210:\n        /* \"#utility.yul\":9539:9730   */\n      swap3\n      swap2\n      pop\n      pop\n      jump\t// out\n\n    auxdata: 0xa264697066735822122010ff24eac9da295efbf486a1d45c4fb0936da13e0276de6934916af8363dad9464736f6c634300081e0033\n}\n",
				"bytecode": {
					"linkReferences": {},
					"object": "6080604052348015600e575f5ffd5b50335f5f6101000a81548173ffffffffffffffffffffffffffffffffffffffff021916908373ffffffffffffffffffffffffffffffffffffffff160217905550610c6b8061005b5f395ff3fe60806040526004361061006f575f3560e01c806381e7e20e1161004d57806381e7e20e146101015780638da5cb5b1461013d57806396f300d414610167578063d0e30db0146101915761006f565b80632bc3d7aa146100735780633ccfd60b146100af5780634abfa163146100c5575b5f5ffd5b34801561007e575f5ffd5b506100996004803603810190610094919061083c565b61019b565b6040516100a69190610881565b60405180910390f35b3480156100ba575f5ffd5b506100c36101b8565b005b3480156100d0575f5ffd5b506100eb60048036038101906100e691906108cd565b6104bd565b6040516100f89190610907565b60405180910390f35b34801561010c575f5ffd5b506101276004803603810190610122919061083c565b6104f8565b604051610134919061092f565b60405180910390f35b348015610148575f5ffd5b5061015161050d565b60405161015e9190610907565b60405180910390f35b348015610172575f5ffd5b5061017b610531565b60405161018891906109ff565b60405180910390f35b6101996105bc565b005b6002602052805f5260405f205f915054906101000a900460ff1681565b3373ffffffffffffffffffffffffffffffffffffffff165f5f9054906101000a900473ffffffffffffffffffffffffffffffffffffffff1673ffffffffffffffffffffffffffffffffffffffff1614610246576040517f08c379a000000000000000000000000000000000000000000000000000000000815260040161023d90610a79565b60405180910390fd5b5f4790505f5f5f9054906101000a900473ffffffffffffffffffffffffffffffffffffffff1673ffffffffffffffffffffffffffffffffffffffff168260405161028f90610ac4565b5f6040518083038185875af1925050503d805f81146102c9576040519150601f19603f3d011682016040523d82523d5f602084013e6102ce565b606091505b5050905080610312576040517f08c379a000000000000000000000000000000000000000000000000000000000815260040161030990610b22565b60405180910390fd5b5f5f9054906101000a900473ffffffffffffffffffffffffffffffffffffffff1673ffffffffffffffffffffffffffffffffffffffff167f7084f5476618d8e60b11ef0d7d3f06914655adb8793e28ff7f018d4c76d505d583604051610378919061092f565b60405180910390a25f5f90505b6003805490508110156104ab575f60015f600384815481106103aa576103a9610b40565b5b905f5260205f20015f9054906101000a900473ffffffffffffffffffffffffffffffffffffffff1673ffffffffffffffffffffffffffffffffffffffff1673ffffffffffffffffffffffffffffffffffffffff1681526020019081526020015f20819055505f60025f6003848154811061042757610426610b40565b5b905f5260205f20015f9054906101000a900473ffffffffffffffffffffffffffffffffffffffff1673ffffffffffffffffffffffffffffffffffffffff1673ffffffffffffffffffffffffffffffffffffffff1681526020019081526020015f205f6101000a81548160ff0219169083151502179055508080600101915050610385565b5060035f6104b991906107a5565b5050565b600381815481106104cc575f80fd5b905f5260205f20015f915054906101000a900473ffffffffffffffffffffffffffffffffffffffff1681565b6001602052805f5260405f205f915090505481565b5f5f9054906101000a900473ffffffffffffffffffffffffffffffffffffffff1681565b606060038054806020026020016040519081016040528092919081815260200182805480156105b257602002820191905f5260205f20905b815f9054906101000a900473ffffffffffffffffffffffffffffffffffffffff1673ffffffffffffffffffffffffffffffffffffffff1681526020019060010190808311610569575b5050505050905090565b5f34116105fe576040517f08c379a00000000000000000000000000000000000000000000000000000000081526004016105f590610bb7565b60405180910390fd5b60025f3373ffffffffffffffffffffffffffffffffffffffff1673ffffffffffffffffffffffffffffffffffffffff1681526020019081526020015f205f9054906101000a900460ff1661070257600333908060018154018082558091505060019003905f5260205f20015f9091909190916101000a81548173ffffffffffffffffffffffffffffffffffffffff021916908373ffffffffffffffffffffffffffffffffffffffff160217905550600160025f3373ffffffffffffffffffffffffffffffffffffffff1673ffffffffffffffffffffffffffffffffffffffff1681526020019081526020015f205f6101000a81548160ff0219169083151502179055505b3460015f3373ffffffffffffffffffffffffffffffffffffffff1673ffffffffffffffffffffffffffffffffffffffff1681526020019081526020015f205f82825461074e9190610c02565b925050819055503373ffffffffffffffffffffffffffffffffffffffff167f2da466a7b24304f47e87fa2e1e5a81b9831ce54fec19055ce277ca2f39ba42c43460405161079b919061092f565b60405180910390a2565b5080545f8255905f5260205f20908101906107c091906107c3565b50565b5b808211156107da575f815f9055506001016107c4565b5090565b5f5ffd5b5f73ffffffffffffffffffffffffffffffffffffffff82169050919050565b5f61080b826107e2565b9050919050565b61081b81610801565b8114610825575f5ffd5b50565b5f8135905061083681610812565b92915050565b5f60208284031215610851576108506107de565b5b5f61085e84828501610828565b91505092915050565b5f8115159050919050565b61087b81610867565b82525050565b5f6020820190506108945f830184610872565b92915050565b5f819050919050565b6108ac8161089a565b81146108b6575f5ffd5b50565b5f813590506108c7816108a3565b92915050565b5f602082840312156108e2576108e16107de565b5b5f6108ef848285016108b9565b91505092915050565b61090181610801565b82525050565b5f60208201905061091a5f8301846108f8565b92915050565b6109298161089a565b82525050565b5f6020820190506109425f830184610920565b92915050565b5f81519050919050565b5f82825260208201905092915050565b5f819050602082019050919050565b61097a81610801565b82525050565b5f61098b8383610971565b60208301905092915050565b5f602082019050919050565b5f6109ad82610948565b6109b78185610952565b93506109c283610962565b805f5b838110156109f25781516109d98882610980565b97506109e483610997565b9250506001810190506109c5565b5085935050505092915050565b5f6020820190508181035f830152610a1781846109a3565b905092915050565b5f82825260208201905092915050565b7f4f6e6c79206f776e657220686173207065726d697373696f6e000000000000005f82015250565b5f610a63601983610a1f565b9150610a6e82610a2f565b602082019050919050565b5f6020820190508181035f830152610a9081610a57565b9050919050565b5f81905092915050565b50565b5f610aaf5f83610a97565b9150610aba82610aa1565b5f82019050919050565b5f610ace82610aa4565b9150819050919050565b7f5472616e73666572206661696c656400000000000000000000000000000000005f82015250565b5f610b0c600f83610a1f565b9150610b1782610ad8565b602082019050919050565b5f6020820190508181035f830152610b3981610b00565b9050919050565b7f4e487b71000000000000000000000000000000000000000000000000000000005f52603260045260245ffd5b7f5a65726f20455448206e6f7420616c6c6f7765640000000000000000000000005f82015250565b5f610ba1601483610a1f565b9150610bac82610b6d565b602082019050919050565b5f6020820190508181035f830152610bce81610b95565b9050919050565b7f4e487b71000000000000000000000000000000000000000000000000000000005f52601160045260245ffd5b5f610c0c8261089a565b9150610c178361089a565b9250828201905080821115610c2f57610c2e610bd5565b5b9291505056fea264697066735822122010ff24eac9da295efbf486a1d45c4fb0936da13e0276de6934916af8363dad9464736f6c634300081e0033",
					"opcodes": "PUSH1 0x80 PUSH1 0x40 MSTORE CALLVALUE DUP1 ISZERO PUSH1 0xE JUMPI PUSH0 PUSH0 REVERT JUMPDEST POP CALLER PUSH0 PUSH0 PUSH2 0x100 EXP DUP2 SLOAD DUP2 PUSH20 0xFFFFFFFFFFFFFFFFFFFFFFFFFFFFFFFFFFFFFFFF MUL NOT AND SWAP1 DUP4 PUSH20 0xFFFFFFFFFFFFFFFFFFFFFFFFFFFFFFFFFFFFFFFF AND MUL OR SWAP1 SSTORE POP PUSH2 0xC6B DUP1 PUSH2 0x5B PUSH0 CODECOPY PUSH0 RETURN INVALID PUSH1 0x80 PUSH1 0x40 MSTORE PUSH1 0x4 CALLDATASIZE LT PUSH2 0x6F JUMPI PUSH0 CALLDATALOAD PUSH1 0xE0 SHR DUP1 PUSH4 0x81E7E20E GT PUSH2 0x4D JUMPI DUP1 PUSH4 0x81E7E20E EQ PUSH2 0x101 JUMPI DUP1 PUSH4 0x8DA5CB5B EQ PUSH2 0x13D JUMPI DUP1 PUSH4 0x96F300D4 EQ PUSH2 0x167 JUMPI DUP1 PUSH4 0xD0E30DB0 EQ PUSH2 0x191 JUMPI PUSH2 0x6F JUMP JUMPDEST DUP1 PUSH4 0x2BC3D7AA EQ PUSH2 0x73 JUMPI DUP1 PUSH4 0x3CCFD60B EQ PUSH2 0xAF JUMPI DUP1 PUSH4 0x4ABFA163 EQ PUSH2 0xC5 JUMPI JUMPDEST PUSH0 PUSH0 REVERT JUMPDEST CALLVALUE DUP1 ISZERO PUSH2 0x7E JUMPI PUSH0 PUSH0 REVERT JUMPDEST POP PUSH2 0x99 PUSH1 0x4 DUP1 CALLDATASIZE SUB DUP2 ADD SWAP1 PUSH2 0x94 SWAP2 SWAP1 PUSH2 0x83C JUMP JUMPDEST PUSH2 0x19B JUMP JUMPDEST PUSH1 0x40 MLOAD PUSH2 0xA6 SWAP2 SWAP1 PUSH2 0x881 JUMP JUMPDEST PUSH1 0x40 MLOAD DUP1 SWAP2 SUB SWAP1 RETURN JUMPDEST CALLVALUE DUP1 ISZERO PUSH2 0xBA JUMPI PUSH0 PUSH0 REVERT JUMPDEST POP PUSH2 0xC3 PUSH2 0x1B8 JUMP JUMPDEST STOP JUMPDEST CALLVALUE DUP1 ISZERO PUSH2 0xD0 JUMPI PUSH0 PUSH0 REVERT JUMPDEST POP PUSH2 0xEB PUSH1 0x4 DUP1 CALLDATASIZE SUB DUP2 ADD SWAP1 PUSH2 0xE6 SWAP2 SWAP1 PUSH2 0x8CD JUMP JUMPDEST PUSH2 0x4BD JUMP JUMPDEST PUSH1 0x40 MLOAD PUSH2 0xF8 SWAP2 SWAP1 PUSH2 0x907 JUMP JUMPDEST PUSH1 0x40 MLOAD DUP1 SWAP2 SUB SWAP1 RETURN JUMPDEST CALLVALUE DUP1 ISZERO PUSH2 0x10C JUMPI PUSH0 PUSH0 REVERT JUMPDEST POP PUSH2 0x127 PUSH1 0x4 DUP1 CALLDATASIZE SUB DUP2 ADD SWAP1 PUSH2 0x122 SWAP2 SWAP1 PUSH2 0x83C JUMP JUMPDEST PUSH2 0x4F8 JUMP JUMPDEST PUSH1 0x40 MLOAD PUSH2 0x134 SWAP2 SWAP1 PUSH2 0x92F JUMP JUMPDEST PUSH1 0x40 MLOAD DUP1 SWAP2 SUB SWAP1 RETURN JUMPDEST CALLVALUE DUP1 ISZERO PUSH2 0x148 JUMPI PUSH0 PUSH0 REVERT JUMPDEST POP PUSH2 0x151 PUSH2 0x50D JUMP JUMPDEST PUSH1 0x40 MLOAD PUSH2 0x15E SWAP2 SWAP1 PUSH2 0x907 JUMP JUMPDEST PUSH1 0x40 MLOAD DUP1 SWAP2 SUB SWAP1 RETURN JUMPDEST CALLVALUE DUP1 ISZERO PUSH2 0x172 JUMPI PUSH0 PUSH0 REVERT JUMPDEST POP PUSH2 0x17B PUSH2 0x531 JUMP JUMPDEST PUSH1 0x40 MLOAD PUSH2 0x188 SWAP2 SWAP1 PUSH2 0x9FF JUMP JUMPDEST PUSH1 0x40 MLOAD DUP1 SWAP2 SUB SWAP1 RETURN JUMPDEST PUSH2 0x199 PUSH2 0x5BC JUMP JUMPDEST STOP JUMPDEST PUSH1 0x2 PUSH1 0x20 MSTORE DUP1 PUSH0 MSTORE PUSH1 0x40 PUSH0 KECCAK256 PUSH0 SWAP2 POP SLOAD SWAP1 PUSH2 0x100 EXP SWAP1 DIV PUSH1 0xFF AND DUP2 JUMP JUMPDEST CALLER PUSH20 0xFFFFFFFFFFFFFFFFFFFFFFFFFFFFFFFFFFFFFFFF AND PUSH0 PUSH0 SWAP1 SLOAD SWAP1 PUSH2 0x100 EXP SWAP1 DIV PUSH20 0xFFFFFFFFFFFFFFFFFFFFFFFFFFFFFFFFFFFFFFFF AND PUSH20 0xFFFFFFFFFFFFFFFFFFFFFFFFFFFFFFFFFFFFFFFF AND EQ PUSH2 0x246 JUMPI PUSH1 0x40 MLOAD PUSH32 0x8C379A000000000000000000000000000000000000000000000000000000000 DUP2 MSTORE PUSH1 0x4 ADD PUSH2 0x23D SWAP1 PUSH2 0xA79 JUMP JUMPDEST PUSH1 0x40 MLOAD DUP1 SWAP2 SUB SWAP1 REVERT JUMPDEST PUSH0 SELFBALANCE SWAP1 POP PUSH0 PUSH0 PUSH0 SWAP1 SLOAD SWAP1 PUSH2 0x100 EXP SWAP1 DIV PUSH20 0xFFFFFFFFFFFFFFFFFFFFFFFFFFFFFFFFFFFFFFFF AND PUSH20 0xFFFFFFFFFFFFFFFFFFFFFFFFFFFFFFFFFFFFFFFF AND DUP3 PUSH1 0x40 MLOAD PUSH2 0x28F SWAP1 PUSH2 0xAC4 JUMP JUMPDEST PUSH0 PUSH1 0x40 MLOAD DUP1 DUP4 SUB DUP2 DUP6 DUP8 GAS CALL SWAP3 POP POP POP RETURNDATASIZE DUP1 PUSH0 DUP2 EQ PUSH2 0x2C9 JUMPI PUSH1 0x40 MLOAD SWAP2 POP PUSH1 0x1F NOT PUSH1 0x3F RETURNDATASIZE ADD AND DUP3 ADD PUSH1 0x40 MSTORE RETURNDATASIZE DUP3 MSTORE RETURNDATASIZE PUSH0 PUSH1 0x20 DUP5 ADD RETURNDATACOPY PUSH2 0x2CE JUMP JUMPDEST PUSH1 0x60 SWAP2 POP JUMPDEST POP POP SWAP1 POP DUP1 PUSH2 0x312 JUMPI PUSH1 0x40 MLOAD PUSH32 0x8C379A000000000000000000000000000000000000000000000000000000000 DUP2 MSTORE PUSH1 0x4 ADD PUSH2 0x309 SWAP1 PUSH2 0xB22 JUMP JUMPDEST PUSH1 0x40 MLOAD DUP1 SWAP2 SUB SWAP1 REVERT JUMPDEST PUSH0 PUSH0 SWAP1 SLOAD SWAP1 PUSH2 0x100 EXP SWAP1 DIV PUSH20 0xFFFFFFFFFFFFFFFFFFFFFFFFFFFFFFFFFFFFFFFF AND PUSH20 0xFFFFFFFFFFFFFFFFFFFFFFFFFFFFFFFFFFFFFFFF AND PUSH32 0x7084F5476618D8E60B11EF0D7D3F06914655ADB8793E28FF7F018D4C76D505D5 DUP4 PUSH1 0x40 MLOAD PUSH2 0x378 SWAP2 SWAP1 PUSH2 0x92F JUMP JUMPDEST PUSH1 0x40 MLOAD DUP1 SWAP2 SUB SWAP1 LOG2 PUSH0 PUSH0 SWAP1 POP JUMPDEST PUSH1 0x3 DUP1 SLOAD SWAP1 POP DUP2 LT ISZERO PUSH2 0x4AB JUMPI PUSH0 PUSH1 0x1 PUSH0 PUSH1 0x3 DUP5 DUP2 SLOAD DUP2 LT PUSH2 0x3AA JUMPI PUSH2 0x3A9 PUSH2 0xB40 JUMP JUMPDEST JUMPDEST SWAP1 PUSH0 MSTORE PUSH1 0x20 PUSH0 KECCAK256 ADD PUSH0 SWAP1 SLOAD SWAP1 PUSH2 0x100 EXP SWAP1 DIV PUSH20 0xFFFFFFFFFFFFFFFFFFFFFFFFFFFFFFFFFFFFFFFF AND PUSH20 0xFFFFFFFFFFFFFFFFFFFFFFFFFFFFFFFFFFFFFFFF AND PUSH20 0xFFFFFFFFFFFFFFFFFFFFFFFFFFFFFFFFFFFFFFFF AND DUP2 MSTORE PUSH1 0x20 ADD SWAP1 DUP2 MSTORE PUSH1 0x20 ADD PUSH0 KECCAK256 DUP2 SWAP1 SSTORE POP PUSH0 PUSH1 0x2 PUSH0 PUSH1 0x3 DUP5 DUP2 SLOAD DUP2 LT PUSH2 0x427 JUMPI PUSH2 0x426 PUSH2 0xB40 JUMP JUMPDEST JUMPDEST SWAP1 PUSH0 MSTORE PUSH1 0x20 PUSH0 KECCAK256 ADD PUSH0 SWAP1 SLOAD SWAP1 PUSH2 0x100 EXP SWAP1 DIV PUSH20 0xFFFFFFFFFFFFFFFFFFFFFFFFFFFFFFFFFFFFFFFF AND PUSH20 0xFFFFFFFFFFFFFFFFFFFFFFFFFFFFFFFFFFFFFFFF AND PUSH20 0xFFFFFFFFFFFFFFFFFFFFFFFFFFFFFFFFFFFFFFFF AND DUP2 MSTORE PUSH1 0x20 ADD SWAP1 DUP2 MSTORE PUSH1 0x20 ADD PUSH0 KECCAK256 PUSH0 PUSH2 0x100 EXP DUP2 SLOAD DUP2 PUSH1 0xFF MUL NOT AND SWAP1 DUP4 ISZERO ISZERO MUL OR SWAP1 SSTORE POP DUP1 DUP1 PUSH1 0x1 ADD SWAP2 POP POP PUSH2 0x385 JUMP JUMPDEST POP PUSH1 0x3 PUSH0 PUSH2 0x4B9 SWAP2 SWAP1 PUSH2 0x7A5 JUMP JUMPDEST POP POP JUMP JUMPDEST PUSH1 0x3 DUP2 DUP2 SLOAD DUP2 LT PUSH2 0x4CC JUMPI PUSH0 DUP1 REVERT JUMPDEST SWAP1 PUSH0 MSTORE PUSH1 0x20 PUSH0 KECCAK256 ADD PUSH0 SWAP2 POP SLOAD SWAP1 PUSH2 0x100 EXP SWAP1 DIV PUSH20 0xFFFFFFFFFFFFFFFFFFFFFFFFFFFFFFFFFFFFFFFF AND DUP2 JUMP JUMPDEST PUSH1 0x1 PUSH1 0x20 MSTORE DUP1 PUSH0 MSTORE PUSH1 0x40 PUSH0 KECCAK256 PUSH0 SWAP2 POP SWAP1 POP SLOAD DUP2 JUMP JUMPDEST PUSH0 PUSH0 SWAP1 SLOAD SWAP1 PUSH2 0x100 EXP SWAP1 DIV PUSH20 0xFFFFFFFFFFFFFFFFFFFFFFFFFFFFFFFFFFFFFFFF AND DUP2 JUMP JUMPDEST PUSH1 0x60 PUSH1 0x3 DUP1 SLOAD DUP1 PUSH1 0x20 MUL PUSH1 0x20 ADD PUSH1 0x40 MLOAD SWAP1 DUP2 ADD PUSH1 0x40 MSTORE DUP1 SWAP3 SWAP2 SWAP1 DUP2 DUP2 MSTORE PUSH1 0x20 ADD DUP3 DUP1 SLOAD DUP1 ISZERO PUSH2 0x5B2 JUMPI PUSH1 0x20 MUL DUP3 ADD SWAP2 SWAP1 PUSH0 MSTORE PUSH1 0x20 PUSH0 KECCAK256 SWAP1 JUMPDEST DUP2 PUSH0 SWAP1 SLOAD SWAP1 PUSH2 0x100 EXP SWAP1 DIV PUSH20 0xFFFFFFFFFFFFFFFFFFFFFFFFFFFFFFFFFFFFFFFF AND PUSH20 0xFFFFFFFFFFFFFFFFFFFFFFFFFFFFFFFFFFFFFFFF AND DUP2 MSTORE PUSH1 0x20 ADD SWAP1 PUSH1 0x1 ADD SWAP1 DUP1 DUP4 GT PUSH2 0x569 JUMPI JUMPDEST POP POP POP POP POP SWAP1 POP SWAP1 JUMP JUMPDEST PUSH0 CALLVALUE GT PUSH2 0x5FE JUMPI PUSH1 0x40 MLOAD PUSH32 0x8C379A000000000000000000000000000000000000000000000000000000000 DUP2 MSTORE PUSH1 0x4 ADD PUSH2 0x5F5 SWAP1 PUSH2 0xBB7 JUMP JUMPDEST PUSH1 0x40 MLOAD DUP1 SWAP2 SUB SWAP1 REVERT JUMPDEST PUSH1 0x2 PUSH0 CALLER PUSH20 0xFFFFFFFFFFFFFFFFFFFFFFFFFFFFFFFFFFFFFFFF AND PUSH20 0xFFFFFFFFFFFFFFFFFFFFFFFFFFFFFFFFFFFFFFFF AND DUP2 MSTORE PUSH1 0x20 ADD SWAP1 DUP2 MSTORE PUSH1 0x20 ADD PUSH0 KECCAK256 PUSH0 SWAP1 SLOAD SWAP1 PUSH2 0x100 EXP SWAP1 DIV PUSH1 0xFF AND PUSH2 0x702 JUMPI PUSH1 0x3 CALLER SWAP1 DUP1 PUSH1 0x1 DUP2 SLOAD ADD DUP1 DUP3 SSTORE DUP1 SWAP2 POP POP PUSH1 0x1 SWAP1 SUB SWAP1 PUSH0 MSTORE PUSH1 0x20 PUSH0 KECCAK256 ADD PUSH0 SWAP1 SWAP2 SWAP1 SWAP2 SWAP1 SWAP2 PUSH2 0x100 EXP DUP2 SLOAD DUP2 PUSH20 0xFFFFFFFFFFFFFFFFFFFFFFFFFFFFFFFFFFFFFFFF MUL NOT AND SWAP1 DUP4 PUSH20 0xFFFFFFFFFFFFFFFFFFFFFFFFFFFFFFFFFFFFFFFF AND MUL OR SWAP1 SSTORE POP PUSH1 0x1 PUSH1 0x2 PUSH0 CALLER PUSH20 0xFFFFFFFFFFFFFFFFFFFFFFFFFFFFFFFFFFFFFFFF AND PUSH20 0xFFFFFFFFFFFFFFFFFFFFFFFFFFFFFFFFFFFFFFFF AND DUP2 MSTORE PUSH1 0x20 ADD SWAP1 DUP2 MSTORE PUSH1 0x20 ADD PUSH0 KECCAK256 PUSH0 PUSH2 0x100 EXP DUP2 SLOAD DUP2 PUSH1 0xFF MUL NOT AND SWAP1 DUP4 ISZERO ISZERO MUL OR SWAP1 SSTORE POP JUMPDEST CALLVALUE PUSH1 0x1 PUSH0 CALLER PUSH20 0xFFFFFFFFFFFFFFFFFFFFFFFFFFFFFFFFFFFFFFFF AND PUSH20 0xFFFFFFFFFFFFFFFFFFFFFFFFFFFFFFFFFFFFFFFF AND DUP2 MSTORE PUSH1 0x20 ADD SWAP1 DUP2 MSTORE PUSH1 0x20 ADD PUSH0 KECCAK256 PUSH0 DUP3 DUP3 SLOAD PUSH2 0x74E SWAP2 SWAP1 PUSH2 0xC02 JUMP JUMPDEST SWAP3 POP POP DUP2 SWAP1 SSTORE POP CALLER PUSH20 0xFFFFFFFFFFFFFFFFFFFFFFFFFFFFFFFFFFFFFFFF AND PUSH32 0x2DA466A7B24304F47E87FA2E1E5A81B9831CE54FEC19055CE277CA2F39BA42C4 CALLVALUE PUSH1 0x40 MLOAD PUSH2 0x79B SWAP2 SWAP1 PUSH2 0x92F JUMP JUMPDEST PUSH1 0x40 MLOAD DUP1 SWAP2 SUB SWAP1 LOG2 JUMP JUMPDEST POP DUP1 SLOAD PUSH0 DUP3 SSTORE SWAP1 PUSH0 MSTORE PUSH1 0x20 PUSH0 KECCAK256 SWAP1 DUP2 ADD SWAP1 PUSH2 0x7C0 SWAP2 SWAP1 PUSH2 0x7C3 JUMP JUMPDEST POP JUMP JUMPDEST JUMPDEST DUP1 DUP3 GT ISZERO PUSH2 0x7DA JUMPI PUSH0 DUP2 PUSH0 SWAP1 SSTORE POP PUSH1 0x1 ADD PUSH2 0x7C4 JUMP JUMPDEST POP SWAP1 JUMP JUMPDEST PUSH0 PUSH0 REVERT JUMPDEST PUSH0 PUSH20 0xFFFFFFFFFFFFFFFFFFFFFFFFFFFFFFFFFFFFFFFF DUP3 AND SWAP1 POP SWAP2 SWAP1 POP JUMP JUMPDEST PUSH0 PUSH2 0x80B DUP3 PUSH2 0x7E2 JUMP JUMPDEST SWAP1 POP SWAP2 SWAP1 POP JUMP JUMPDEST PUSH2 0x81B DUP2 PUSH2 0x801 JUMP JUMPDEST DUP2 EQ PUSH2 0x825 JUMPI PUSH0 PUSH0 REVERT JUMPDEST POP JUMP JUMPDEST PUSH0 DUP2 CALLDATALOAD SWAP1 POP PUSH2 0x836 DUP2 PUSH2 0x812 JUMP JUMPDEST SWAP3 SWAP2 POP POP JUMP JUMPDEST PUSH0 PUSH1 0x20 DUP3 DUP5 SUB SLT ISZERO PUSH2 0x851 JUMPI PUSH2 0x850 PUSH2 0x7DE JUMP JUMPDEST JUMPDEST PUSH0 PUSH2 0x85E DUP5 DUP3 DUP6 ADD PUSH2 0x828 JUMP JUMPDEST SWAP2 POP POP SWAP3 SWAP2 POP POP JUMP JUMPDEST PUSH0 DUP2 ISZERO ISZERO SWAP1 POP SWAP2 SWAP1 POP JUMP JUMPDEST PUSH2 0x87B DUP2 PUSH2 0x867 JUMP JUMPDEST DUP3 MSTORE POP POP JUMP JUMPDEST PUSH0 PUSH1 0x20 DUP3 ADD SWAP1 POP PUSH2 0x894 PUSH0 DUP4 ADD DUP5 PUSH2 0x872 JUMP JUMPDEST SWAP3 SWAP2 POP POP JUMP JUMPDEST PUSH0 DUP2 SWAP1 POP SWAP2 SWAP1 POP JUMP JUMPDEST PUSH2 0x8AC DUP2 PUSH2 0x89A JUMP JUMPDEST DUP2 EQ PUSH2 0x8B6 JUMPI PUSH0 PUSH0 REVERT JUMPDEST POP JUMP JUMPDEST PUSH0 DUP2 CALLDATALOAD SWAP1 POP PUSH2 0x8C7 DUP2 PUSH2 0x8A3 JUMP JUMPDEST SWAP3 SWAP2 POP POP JUMP JUMPDEST PUSH0 PUSH1 0x20 DUP3 DUP5 SUB SLT ISZERO PUSH2 0x8E2 JUMPI PUSH2 0x8E1 PUSH2 0x7DE JUMP JUMPDEST JUMPDEST PUSH0 PUSH2 0x8EF DUP5 DUP3 DUP6 ADD PUSH2 0x8B9 JUMP JUMPDEST SWAP2 POP POP SWAP3 SWAP2 POP POP JUMP JUMPDEST PUSH2 0x901 DUP2 PUSH2 0x801 JUMP JUMPDEST DUP3 MSTORE POP POP JUMP JUMPDEST PUSH0 PUSH1 0x20 DUP3 ADD SWAP1 POP PUSH2 0x91A PUSH0 DUP4 ADD DUP5 PUSH2 0x8F8 JUMP JUMPDEST SWAP3 SWAP2 POP POP JUMP JUMPDEST PUSH2 0x929 DUP2 PUSH2 0x89A JUMP JUMPDEST DUP3 MSTORE POP POP JUMP JUMPDEST PUSH0 PUSH1 0x20 DUP3 ADD SWAP1 POP PUSH2 0x942 PUSH0 DUP4 ADD DUP5 PUSH2 0x920 JUMP JUMPDEST SWAP3 SWAP2 POP POP JUMP JUMPDEST PUSH0 DUP2 MLOAD SWAP1 POP SWAP2 SWAP1 POP JUMP JUMPDEST PUSH0 DUP3 DUP3 MSTORE PUSH1 0x20 DUP3 ADD SWAP1 POP SWAP3 SWAP2 POP POP JUMP JUMPDEST PUSH0 DUP2 SWAP1 POP PUSH1 0x20 DUP3 ADD SWAP1 POP SWAP2 SWAP1 POP JUMP JUMPDEST PUSH2 0x97A DUP2 PUSH2 0x801 JUMP JUMPDEST DUP3 MSTORE POP POP JUMP JUMPDEST PUSH0 PUSH2 0x98B DUP4 DUP4 PUSH2 0x971 JUMP JUMPDEST PUSH1 0x20 DUP4 ADD SWAP1 POP SWAP3 SWAP2 POP POP JUMP JUMPDEST PUSH0 PUSH1 0x20 DUP3 ADD SWAP1 POP SWAP2 SWAP1 POP JUMP JUMPDEST PUSH0 PUSH2 0x9AD DUP3 PUSH2 0x948 JUMP JUMPDEST PUSH2 0x9B7 DUP2 DUP6 PUSH2 0x952 JUMP JUMPDEST SWAP4 POP PUSH2 0x9C2 DUP4 PUSH2 0x962 JUMP JUMPDEST DUP1 PUSH0 JUMPDEST DUP4 DUP2 LT ISZERO PUSH2 0x9F2 JUMPI DUP2 MLOAD PUSH2 0x9D9 DUP9 DUP3 PUSH2 0x980 JUMP JUMPDEST SWAP8 POP PUSH2 0x9E4 DUP4 PUSH2 0x997 JUMP JUMPDEST SWAP3 POP POP PUSH1 0x1 DUP2 ADD SWAP1 POP PUSH2 0x9C5 JUMP JUMPDEST POP DUP6 SWAP4 POP POP POP POP SWAP3 SWAP2 POP POP JUMP JUMPDEST PUSH0 PUSH1 0x20 DUP3 ADD SWAP1 POP DUP2 DUP2 SUB PUSH0 DUP4 ADD MSTORE PUSH2 0xA17 DUP2 DUP5 PUSH2 0x9A3 JUMP JUMPDEST SWAP1 POP SWAP3 SWAP2 POP POP JUMP JUMPDEST PUSH0 DUP3 DUP3 MSTORE PUSH1 0x20 DUP3 ADD SWAP1 POP SWAP3 SWAP2 POP POP JUMP JUMPDEST PUSH32 0x4F6E6C79206F776E657220686173207065726D697373696F6E00000000000000 PUSH0 DUP3 ADD MSTORE POP JUMP JUMPDEST PUSH0 PUSH2 0xA63 PUSH1 0x19 DUP4 PUSH2 0xA1F JUMP JUMPDEST SWAP2 POP PUSH2 0xA6E DUP3 PUSH2 0xA2F JUMP JUMPDEST PUSH1 0x20 DUP3 ADD SWAP1 POP SWAP2 SWAP1 POP JUMP JUMPDEST PUSH0 PUSH1 0x20 DUP3 ADD SWAP1 POP DUP2 DUP2 SUB PUSH0 DUP4 ADD MSTORE PUSH2 0xA90 DUP2 PUSH2 0xA57 JUMP JUMPDEST SWAP1 POP SWAP2 SWAP1 POP JUMP JUMPDEST PUSH0 DUP2 SWAP1 POP SWAP3 SWAP2 POP POP JUMP JUMPDEST POP JUMP JUMPDEST PUSH0 PUSH2 0xAAF PUSH0 DUP4 PUSH2 0xA97 JUMP JUMPDEST SWAP2 POP PUSH2 0xABA DUP3 PUSH2 0xAA1 JUMP JUMPDEST PUSH0 DUP3 ADD SWAP1 POP SWAP2 SWAP1 POP JUMP JUMPDEST PUSH0 PUSH2 0xACE DUP3 PUSH2 0xAA4 JUMP JUMPDEST SWAP2 POP DUP2 SWAP1 POP SWAP2 SWAP1 POP JUMP JUMPDEST PUSH32 0x5472616E73666572206661696C65640000000000000000000000000000000000 PUSH0 DUP3 ADD MSTORE POP JUMP JUMPDEST PUSH0 PUSH2 0xB0C PUSH1 0xF DUP4 PUSH2 0xA1F JUMP JUMPDEST SWAP2 POP PUSH2 0xB17 DUP3 PUSH2 0xAD8 JUMP JUMPDEST PUSH1 0x20 DUP3 ADD SWAP1 POP SWAP2 SWAP1 POP JUMP JUMPDEST PUSH0 PUSH1 0x20 DUP3 ADD SWAP1 POP DUP2 DUP2 SUB PUSH0 DUP4 ADD MSTORE PUSH2 0xB39 DUP2 PUSH2 0xB00 JUMP JUMPDEST SWAP1 POP SWAP2 SWAP1 POP JUMP JUMPDEST PUSH32 0x4E487B7100000000000000000000000000000000000000000000000000000000 PUSH0 MSTORE PUSH1 0x32 PUSH1 0x4 MSTORE PUSH1 0x24 PUSH0 REVERT JUMPDEST PUSH32 0x5A65726F20455448206E6F7420616C6C6F776564000000000000000000000000 PUSH0 DUP3 ADD MSTORE POP JUMP JUMPDEST PUSH0 PUSH2 0xBA1 PUSH1 0x14 DUP4 PUSH2 0xA1F JUMP JUMPDEST SWAP2 POP PUSH2 0xBAC DUP3 PUSH2 0xB6D JUMP JUMPDEST PUSH1 0x20 DUP3 ADD SWAP1 POP SWAP2 SWAP1 POP JUMP JUMPDEST PUSH0 PUSH1 0x20 DUP3 ADD SWAP1 POP DUP2 DUP2 SUB PUSH0 DUP4 ADD MSTORE PUSH2 0xBCE DUP2 PUSH2 0xB95 JUMP JUMPDEST SWAP1 POP SWAP2 SWAP1 POP JUMP JUMPDEST PUSH32 0x4E487B7100000000000000000000000000000000000000000000000000000000 PUSH0 MSTORE PUSH1 0x11 PUSH1 0x4 MSTORE PUSH1 0x24 PUSH0 REVERT JUMPDEST PUSH0 PUSH2 0xC0C DUP3 PUSH2 0x89A JUMP JUMPDEST SWAP2 POP PUSH2 0xC17 DUP4 PUSH2 0x89A JUMP JUMPDEST SWAP3 POP DUP3 DUP3 ADD SWAP1 POP DUP1 DUP3 GT ISZERO PUSH2 0xC2F JUMPI PUSH2 0xC2E PUSH2 0xBD5 JUMP JUMPDEST JUMPDEST SWAP3 SWAP2 POP POP JUMP INVALID LOG2 PUSH5 0x6970667358 0x22 SLT KECCAK256 LT SELFDESTRUCT 0x24 0xEA 0xC9 0xDA 0x29 MCOPY EXTSTATICCALL DELEGATECALL DUP7 LOG1 0xD4 TLOAD 0x4F 0xB0 SWAP4 PUSH14 0xA13E0276DE6934916AF8363DAD94 PUSH5 0x736F6C6343 STOP ADDMOD 0x1E STOP CALLER "
				},
				"gasEstimates": {
					"creation": {
						"codeDepositCost": "635800",
						"executionCost": "24932",
						"totalCost": "660732"
					},
					"external": {
						"deposit()": "infinite",
						"donors(uint256)": "4989",
						"getDonors()": "infinite",
						"isDonor(address)": "2834",
						"owner()": "2529",
						"user(address)": "2802",
						"withdraw()": "infinite"
					}
				},
				"methodIdentifiers": {
					"deposit()": "d0e30db0",
					"donors(uint256)": "4abfa163",
					"getDonors()": "96f300d4",
					"isDonor(address)": "2bc3d7aa",
					"owner()": "8da5cb5b",
					"user(address)": "81e7e20e",
					"withdraw()": "3ccfd60b"
				}
			},
			"storageLayout": {
				"storage": [
					{
						"astId": 3,
						"contract": "contracts/fundMe/fundme.sol:FundMe",
						"label": "owner",
						"offset": 0,
						"slot": "0",
						"type": "t_address"
					},
					{
						"astId": 7,
						"contract": "contracts/fundMe/fundme.sol:FundMe",
						"label": "user",
						"offset": 0,
						"slot": "1",
						"type": "t_mapping(t_address,t_uint256)"
					},
					{
						"astId": 11,
						"contract": "contracts/fundMe/fundme.sol:FundMe",
						"label": "isDonor",
						"offset": 0,
						"slot": "2",
						"type": "t_mapping(t_address,t_bool)"
					},
					{
						"astId": 14,
						"contract": "contracts/fundMe/fundme.sol:FundMe",
						"label": "donors",
						"offset": 0,
						"slot": "3",
						"type": "t_array(t_address)dyn_storage"
					}
				],
				"types": {
					"t_address": {
						"encoding": "inplace",
						"label": "address",
						"numberOfBytes": "20"
					},
					"t_array(t_address)dyn_storage": {
						"base": "t_address",
						"encoding": "dynamic_array",
						"label": "address[]",
						"numberOfBytes": "32"
					},
					"t_bool": {
						"encoding": "inplace",
						"label": "bool",
						"numberOfBytes": "1"
					},
					"t_mapping(t_address,t_bool)": {
						"encoding": "mapping",
						"key": "t_address",
						"label": "mapping(address => bool)",
						"numberOfBytes": "32",
						"value": "t_bool"
					},
					"t_mapping(t_address,t_uint256)": {
						"encoding": "mapping",
						"key": "t_address",
						"label": "mapping(address => uint256)",
						"numberOfBytes": "32",
						"value": "t_uint256"
					},
					"t_uint256": {
						"encoding": "inplace",
						"label": "uint256",
						"numberOfBytes": "32"
					}
				}
			},
			"userdoc": {
				"kind": "user",
				"methods": {},
				"version": 1
			}
		}
	}
}